:100000000C94A7000C94C6000C94C6000C94C60077
:100010000C94C6000C94C6000C94C6000C94C60048
:100020000C94C6000C94C6000C94C6000C94C60038
:100030000C94C6000C94C6000C94A5010C94C60048
:100040000C94C6000C94C6000C94C6000C94C60018
:100050000C94C6000C94C6000C94C6000C94C60008
:100060000C94C6000C94C6000C94C6000C94C600F8
:100070000C94C6000C94C6000C94C6000C94C600E8
:100080000C94C6000C94C6000C94C600443D20326B
:1000900000443D2E3300443D203100473D202030B8
:1000A0003B00473D2D32303B00503D2B353B20007F
:1000B000503D20303B2000503D2D353B2000503D31
:1000C0002D31303B0053656E7420616E6420726583
:1000D000636569766564207061636B657420257360
:1000E0000A546F74616C207472616E736D697474FC
:1000F000696F6E733A2025642C206E6F20657272D2
:100100006F727320666F722025642074696D657349
:1001100000523D2533643B523D2532643B433D252F
:100120006420001B5B324A48656C6C6F2066726FFE
:100130006D2052464D37332E2E2E0A0048656C6CCA
:100140006F2066726F6D2052582E2E2E00001124E3
:100150001FBECFEFD0E1DEBFCDBF11E0A0E0B1E028
:10016000E6EAF3E100E00BBF02C007900D92AA3966
:10017000B107D9F711E0AAE9B1E001C01D92A83C8E
:10018000B107E1F70E948D030C94D1090C94000093
:100190008F70A99A97EF9A95F1F7000095B39F7029
:1001A00095BB95B38295807F892B85BBA99887EFF6
:1001B0008A95F1F7000008951F93182F82958F708C
:1001C000662311F4A89801C0A89A0E94C800812F44
:1001D0000E94C8001F91089515BA83EF84BB8FE475
:1001E00099ED0197F1F700C083E360E00E94DC0025
:1001F00083EF99E30197F1F782E360E00E94DC006E
:1002000082E791E00197F1F700C0000088E260E02A
:100210000E94DC008CE79EE00197F1F700C000002F
:100220008CE060E00E94DC008CE79EE00197F1F733
:1002300000C0000086E060E00E94DC008CE79EE0E9
:100240000197F1F700C00000089581E060E00E948E
:10025000DC008BEB95E10197F1F708956295660F4D
:10026000660F607C860F806860E00E94DC00089565
:10027000CF93DF93EC018881882339F0219661E0E8
:100280000E94DC0089918823D1F7DF91CF910895F6
:10029000B89ABC9ABD98C4988AB387608ABB0895FF
:1002A0008DEA93EE9DBD8CBD8EB585608EBD87B702
:1002B000846087BF08950F931F93DF93CF93CDB7CB
:1002C000DEB760970FB6F894DEBF0FBECDBF0E94B9
:1002D00048010E946E060E9450010E94EC0080E0DE
:1002E00060E076E90E94880681E191E09093C50183
:1002F0008093C4010E94250100D000D08E010F5FC1
:100300001F4FEDB7FEB7128301838CE391E0948316
:1003100083830E94F1060F900F9083E291E0EDB786
:10032000FEB7928381830E94D1060F900F90C8017F
:100330000E94380160960FB6F894DEBF0FBECDBFA5
:10034000CF91DF911F910F9108951F920F920FB6D9
:100350000F9211248F939F9381E080939A019BB316
:1003600084E089278BBB8DEA93EE9DBD8CBD9F9168
:100370008F910F900FBE0F901F9018958BEE95E404
:10038000ADE281509040A040E1F700C00000089528
:100390000F931F93DF93CF93CDB7DEB7E2970FB6DE
:1003A000F894DEBF0FBECDBF80919A01882309F477
:1003B00096C010929A01E0E0F1E0DE011196CF01C3
:1003C000419621912D93E817F907D9F781E0BE01F5
:1003D0006F5F7F4F41E10E94C005882349F48091FF
:1003E0009B0190919C01019690939C0180939B01AD
:1003F00080919B0190919C0123E0883E920721F41B
:1004000010929C0110929B0119AA1AAACE01C196C2
:10041000BE016E5C7F4F0E9444060E946906ADB724
:10042000BEB71A970FB6F894BEBF0FBEADBFEDB7FB
:10043000FEB731968E010F5D1F4F12961C930E93DF
:10044000119721E131E03383228320919B01309188
:100450009C013583248399A996831782808711860E
:100460000E94F1062DB73EB7265F3F4F0FB6F894B6
:100470003EBF0FBE2DBF80E061E00E942E01C8018B
:100480000E94380118A28DB79EB708970FB6F8944E
:100490009EBF0FBE8DBFEDB7FEB7319685EC90E0E5
:1004A000ADB7BEB712969C938E931197CE0101966D
:1004B000938382831582148280919B0190919C0189
:1004C000978386830E94D1062DB73EB7285F3F4FA2
:1004D0000FB6F8943EBF0FBE2DBF0E948204E29675
:1004E0000FB6F894DEBF0FBECDBFCF91DF911F9145
:1004F0000F910895FF920F931F93DF93CF93CDB782
:10050000DEB7A8970FB6F894DEBF0FBECDBF182F89
:10051000F62E042F8823B9F400D000D0CE014496E3
:10052000ADB7BEB712969C938E9311978EEB90E069
:1005300014969C938E9313970E94F1060F900F9040
:100540000F900F902EC0813099F400D000D0CE01D2
:100550004496EDB7FEB79283818387EB90E0948356
:1005600083830E94F1060F900F900F900F902DC083
:100570008230B9F400D000D0CE014496ADB7BEB7FA
:1005800012969C938E93119780EB90E014969C9317
:100590008E9313970E94F1060F900F900F900F907B
:1005A00014C0133091F400D000D0CE014496EDB7C2
:1005B000FEB79283818389EA90E0948383830E94CB
:1005C000F1060F900F900F900F90FF20B9F400D01C
:1005D00000D0CE014B96ADB7BEB712969C938E93CA
:1005E000119782EA90E014969C938E9313970E9441
:1005F000F1060F900F900F900F9015C0BF2DB130E6
:1006000091F400D000D0CE014B96EDB7FEB79283A7
:1006100081838BE990E0948383830E94F1060F909D
:100620000F900F900F900023B9F400D000D0CE01AE
:100630008296ADB7BEB712969C938E93119786E9BA
:1006400090E014969C938E9313970E94F1060F905E
:100650000F900F900F902DC0013099F400D000D072
:10066000CE018296EDB7FEB79283818381E990E057
:10067000948383830E94F1060F900F900F900F9048
:1006800018C00230B1F400D000D0CE018296ADB7D0
:10069000BEB712969C938E9311978CE890E01496B7
:1006A0009C938E9313970E94F1060F900F900F90DA
:1006B0000F909E012C5E3F4FFE013196CE014B966E
:1006C000BE016E5D7F4F40E0D9015D919D01508379
:1006D000DC015D91CD015683DB015D91BD01548745
:1006E0004F5F3196463081F780E060E00E942E0136
:1006F000CE0101960E943801812F6F2D402F0E945C
:10070000BE04A8960FB6F894DEBF0FBECDBFCF9142
:10071000DF911F910F91FF9008956F927F928F92BA
:100720009F92AF92BF92CF92DF92EF92FF920F9380
:100730001F93DF93CF93CDB7DEB7A1970FB6F89491
:10074000DEBF0FBECDBF0E94BE010E945B01789448
:1007500019A283E061E040E00E947A0200E00F2EDF
:10076000F7E1FF2EF02DEE24992493940F2EF3E061
:100770008F2EF02D0F2EF1E2AF2EBB24F02DAC0EFC
:10078000BD1E6E010894C11CD11C772473940F2EDA
:10079000FFE76F2EF02D01C000E0C49A0E94C8014F
:1007A00080E0B601A5010E94FA05C49819B3187F2C
:1007B000103871F4002361F48394882D843009F497
:1007C0008824882D692D4E2D0E947A02072D20C085
:1007D000103471F4002361F49394892D823009F46C
:1007E0009924882D692D4E2D0E947A02072D1EC056
:1007F000103271F4002361F4E3948E2D833009F4F8
:10080000EE24882D692D4E2D0E947A02072D1BC0E3
:10081000103161F4002351F4FA948F2D8F3F09F4C5
:10082000F62C8F2D0E94B904072DB7CF183059F43C
:10083000002309F0B2CFF3940CF4FF248F2D0E9413
:10084000B904072DAACF112309F4A6CFA6CF1F9371
:10085000162FC0980E947506812F0E947506C09AB7
:100860001F910895C0980E94750680E00E94750649
:10087000C09A0895EF92FF920F931F93CF93DF9347
:10088000F62EE72E142FC0980E947506112379F0DA
:100890000F2D8E2DEF2CE7017E01F82EE70180E071
:1008A0000E94750689937E01E01AE116C0F3C09A92
:1008B000DF91CF911F910F91FF90EF900895EF92EC
:1008C000FF920F931F93CF93DF93062FF72E142FD2
:1008D000C0980E947506112369F08F2DE02EE70164
:1008E0007E01F82EE70189910E9475067E01E01ACB
:1008F000E116C8F3C09ADF91CF911F910F91FF903D
:10090000EF90089582EE60E00E94270487E00E9445
:100910003204682F87E20E942704C49880E00E9476
:100920003204682F616080E20E942704C49A08950F
:1009300081EE60E00E942704C49880E00E943204A7
:10094000682F6E7F80E20E942704C49A08951F9347
:10095000182F87E00E94320488231CF4112319F019
:1009600006C0112321F080E563E50E9427041F9152
:100970000895682F85E20E9427040895CF92DF92A0
:10098000EF92FF920F931F93DF93CF93CDB7DEB714
:100990002C970FB6F894DEBF0FBECDBFE82E062F02
:1009A000C42E8BEF9DE0A9E081509040A040E1F77C
:1009B00000C0000080E00E94A7044C2D50E02FE60C
:1009C00031E0FF2493E0E922FF24B701660F771F8F
:1009D000CA0182709070880F991F880F991F880F25
:1009E000991F862B0170802B41705070440F551F4A
:1009F00042955295507F5427407F5427482B40936F
:100A00006F0189010D5010400F2EFBE1EF2EFF24E6
:100A1000F02DE20EF31ED8018C91806211966C913C
:100A20000E9427040E5F1F4F0E151F05A1F700E956
:100A300011E08AE2B80145E00E945F048BE265E9BB
:100A400071E045E00E945F0480E3B80145E00E9448
:100A50005F048DE10E943204882321F480E563E77E
:100A60000E94270480918E01806260918F010E9414
:100A7000270480918C01806260918D010E9427047F
:100A800081E00E94A7040FE111E0EE246E010894BA
:100A9000C11CD11C07C003E411E06E010894C11C05
:100AA000D11C15C0F80181919191A191B1918F0153
:100AB00089839A83AB83BC838E2D8062B60144E028
:100AC0000E945F04E394FE2DF93061F7E4CFF80152
:100AD00081919191A191B1918F01B983AA839B8357
:100AE0008C838E2D8062B60144E00E945F04E39403
:100AF000FE2DFE3061F7E7E5F1E0DE011196CF0152
:100B00000B9621912D93E817F907D9F78EE28E0104
:100B10000F5F1F4FB8014BE00E945F0486E98A8394
:100B200082E88B838BE18C838FED898384E2B8012B
:100B300044E00E945F048981897F898384E2B8014F
:100B400044E00E945F048EE793E4A2E0815090406D
:100B5000A040E1F700C0000080E00E94A7040E94CE
:100B600082042C960FB6F894DEBF0FBECDBFCF9196
:100B7000DF911F910F91FF90EF90DF90CF9008953C
:100B80000F931F93CF93DF93082FEB01142F0E9435
:100B9000980485EE92E00197F1F700C0000087E12C
:100BA0000E94320485FD20C0D99A013099F480EA70
:100BB000BE01412F0E945F0487E00E94320490E052
:100BC0009C012073307021153105B1F384FD09C0FB
:100BD00080E008C080EBBE01412F0E945F0480E0EE
:100BE00001C081E0D99801C080E0DF91CF911F91D1
:100BF0000F910895BF92CF92DF92EF92FF920F93E1
:100C00001F93CF93DF93B82E7B01EA0187E00E9408
:100C10003204D82E86FF28C000E0CC24C39480E69E
:100C20000E943204482F8883813230F481E6B70174
:100C30000E943A04102F06C0188282EE602F0E9494
:100C400027041C2D87E10E94320480FFE8CFD89A48
:100C50008B2D813029F480EBB70148810E94C005BB
:100C6000D8980E94820401C012E087E26D2D0E9494
:100C70002704812FDF91CF911F910F91FF90EF906B
:100C8000DF90CF90BF9008950F931F93CF93DF9382
:100C9000EC018B0188E00E943204982F92959F709E
:100CA00098838F70F801808380E0DF91CF911F914E
:100CB0000F910895DF93CF930F92CDB7DEB789E000
:100CC0000E9432048983898181700F90CF91DF91D6
:100CD000089585E00E9432048F77089587B3866077
:100CE00087BB81E58DB96D9808958FB9779BFECF4D
:100CF0008FB108951F93182F8A3019F48DE00E9448
:100D00007A065D9BFECF1CB980E090E01F910895AC
:100D10001F93182F9B0140E050E069ED75E28EE0D3
:100D200090E00E94AF0621503040113069F43093BA
:100D300098002093990010929B0088E180939A007C
:100D400086E080939D0009C03093900029B91BB8BC
:100D500088E18AB986E0809395001F910895A1E209
:100D60001A2EAA1BBB1BFD010DC0AA1FBB1FEE1F25
:100D7000FF1FA217B307E407F50720F0A21BB30B70
:100D8000E40BF50B661F771F881F991F1A9469F7EC
:100D900060957095809590959B01AC01BD01CF0148
:100DA0000895DF93CF93CDB7DEB7FE0135966191FD
:100DB00071918091C4019091C501DC0113962C9131
:100DC0001397286013962C93AF010E942107E0919E
:100DD000C401F091C5012381277F2383CF91DF9147
:100DE00008950F931F93DF93CF93CDB7DEB72E9760
:100DF0000FB6F894DEBF0FBECDBF0D891E898EE001
:100E00008C831A8309838FEF9FE79E838D839E01D6
:100E1000275E3F4FCE0101966F89788DA9010E9410
:100E20002107EF81F885E00FF11F10822E960FB693
:100E3000F894DEBF0FBECDBFCF91DF911F910F9110
:100E400008952F923F924F925F926F927F928F926E
:100E50009F92AF92BF92CF92DF92EF92FF920F9349
:100E60001F93DF93CF93CDB7DEB72C970FB6F894CF
:100E7000DEBF0FBECDBF6C011B018A01FC011782D2
:100E80001682838181FFD1C12E010894411C511C1F
:100E9000F6019381F10193FD859193FF81911F01EB
:100EA000882309F4BEC1853239F493FD859193FFFF
:100EB00081911F01853229F490E0B6010E94470913
:100EC000E7CFEE24FF2420E02032B0F48B3269F02B
:100ED0008C3228F4803251F0833271F40BC08D32A1
:100EE00039F0803349F421602CC02260246029C08D
:100EF000286027C0206125C027FD2CC0382F305323
:100F00003A3098F426FF08C08E2D880FE82EEE0C9C
:100F1000EE0CE80EE30E15C08F2D880FF82EFF0C97
:100F2000FF0CF80EF30E20620CC08E3221F426FD69
:100F300078C1206406C08C3611F4206802C088365F
:100F400049F4F10193FD859193FF81911F0188235D
:100F500009F0BACF982F9554933018F090529330EF
:100F600028F40C5F1F4FFFE3F9830DC0833631F087
:100F7000833771F0833509F060C022C0F8018081A9
:100F800089830E5F1F4F420171E0A72EB12C16C05E
:100F900062E0662E712C600E711EF80180809180D7
:100FA00026FF03C06E2D70E002C06FEF7FEFC4011B
:100FB0002C870E943C095C0183012C852F7717C088
:100FC00052E0652E712C600E711EF80180809180B8
:100FD00026FF03C06E2D70E002C06FEF7FEFC401EB
:100FE0002C870E9431095C012C852068830123FD38
:100FF00020C008C080E290E0B6012C870E9447091B
:10100000FA942C858F2D90E0A816B90698F311C09C
:10101000F40127FD859127FF81914F0190E0B601F2
:101020002C870E9447092C85F110FA940894A10896
:10103000B108A114B10461F7F1C0843611F089360A
:1010400049F527FF08C0F801608171818281938191
:101050000C5F1F4F09C0F80160817181882777FDFF
:101060008095982F0E5F1F4F4FE6B42EB22297FF48
:1010700009C090958095709561957F4F8F4F9F4FD8
:10108000F0E8BF2AA2012AE030E00E947309782E1E
:10109000741845C0853731F43FEEB32EB2222AE0F2
:1010A00030E025C099EFB92EB2228F36C1F08037DB
:1010B00020F4883509F0B5C00DC0803721F088379D
:1010C00009F0AFC002C020E1B22AB4FE0BC084E038
:1010D000B82A08C0B4FE09C0E6E0BE2A06C028E06F
:1010E00030E005C020E130E002C020E132E0B7FE90
:1010F00008C0F80160817181828193810C5F1F4F6C
:1011000007C0F8016081718180E090E00E5F1F4FA1
:10111000A2010E947309782E7418FFE7BF22B6FE61
:101120000BC02EEFB2227E1438F4B4FE07C0B2FC1E
:1011300005C08FEEB82202C0A72C01C0AE2C8B2DAB
:1011400090E0B4FE0DC0FE01E70DF11D20812033BB
:1011500019F4E9EEBE2209C0A394B2FE06C004C091
:1011600086789070009709F0A3948B2C9924B3FC97
:1011700014C0B0FE0FC0AF1428F4E72CEF0CEA182F
:10118000AF2C08C0E72C06C080E290E0B6010E94B8
:101190004709A394AF14C0F304C0AF1410F4FA18B5
:1011A00001C0FF2484FE0FC080E390E0B6010E94DE
:1011B000470982FE1FC081FE03C088E590E010C091
:1011C00088E790E00DC0C40186789070009791F098
:1011D00081FC02C080E201C08BE2B7FC8DE290E0AE
:1011E000B6010E94470906C080E390E0B6010E9464
:1011F0004709EA947E14C0F37A94F201E70DF11DD9
:10120000808190E0B6010E9447097720A9F706C0C7
:1012100080E290E0B6010E944709FA94FF20C1F7EE
:1012200037CEF6012681378102C02FEF3FEFC9018B
:101230002C960FB6F894DEBF0FBECDBFCF91DF91D5
:101240001F910F91FF90EF90DF90CF90BF90AF90E4
:101250009F908F907F906F905F904F903F902F90D6
:101260000895FC010590615070400110D8F78095F9
:1012700090958E0F9F1F0895FC0161507040019062
:101280000110D8F7809590958E0F9F1F08950F93AA
:101290001F93CF93DF938C01EB018B8181FF1BC0E8
:1012A00082FF0DC02E813F818C819D8128173907D7
:1012B00064F4E881F9810193F983E88306C0E88545
:1012C000F985802F0995009731F48E819F810196D1
:1012D0009F838E8302C00FEF1FEFC801DF91CF9174
:1012E0001F910F910895FA01AA27283051F120315A
:1012F00081F1E8946F936E7F6E5F7F4F8F4F9F4FAA
:10130000AF4FB1E03ED0B4E03CD0670F781F891FEB
:101310009A1FA11D680F791F8A1F911DA11D6A0FB9
:10132000711D811D911DA11D20D009F468943F916C
:101330002AE0269F11243019305D3193DEF6CF016B
:101340000895462F4770405D4193B3E00FD0C9F731
:10135000F6CF462F4F70405D4A3318F0495D31FD9E
:101360004052419302D0A9F7EACFB4E0A6959795F1
:10137000879577956795BA95C9F7009761057105C7
:1013800008959B01AC010A2E069457954795379511
:101390002795BA95C9F7620F731F841F951FA01D6B
:0613A0000895F894FFCF50
:1013A600303132333435363738393A3B3C3D3E3FBF
:1013B6007800000002000000007A060000000040ED
:1013C6004B01E2C04B0000D0FC8C0299003941D998
:1013D60096821B24027FA600000000000000000089
:1013E60000000000000000000000000000000000F7
:1013F6007312000080B446412008048120CFF7FE16
:10140600FFFF000F013F0201030304FF0517060754
:101416000707080009000CC30DC40EC50FC611202E
:101426001220132014201520162017001C3F1D071C
:0A143600344310100139383736C274
:00000001FF
