:100000000C9467010C9486010C9486010C94860173
:100010000C9486010C9486010C9486010C94860144
:100020000C9486010C9486010C9486010C94860134
:100030000C9486010C9486010C946A020C9486013F
:100040000C9486010C9486010C9486010C94860114
:100050000C9486010C9486010C9486010C94860104
:100060000C9486010C9486010C9486010C948601F4
:100070000C9486010C9486010C9486010C948601E4
:100080000C9486010C9486010C94860153657420AF
:100090006368616E6E656C2025640A005365742088
:1000A0006368616E6E656C2025640A00523D2533DD
:1000B000643B43533D2531643B433D256400526519
:1000C000636569766564207061636B657420666C36
:1000D0007573686564210A546F74616C20636F7274
:1000E00072656374207061636B6574733A20256474
:1000F0000A00523D25336420464C5553484544215F
:10010000005265636569766564207061636B657430
:100110003A2025730A546F74616C207061636B65BB
:1001200074733A2025640A43757272656E74206395
:1001300068616E6E656C3A2025640A00523D253375
:10014000643B43533D2531643B433D25640044619A
:100150007461726174652069732032204D6270731E
:1001600000443D203200446174617261746520690D
:100170007320302E3235204D6270730A00443D2EBC
:1001800033004461746172617465206973203120A9
:100190004D6270730A00443D2031004C4E4120678F
:1001A00061696E20697320302064426D3B200047F6
:1001B0003D2020303B004C4E41206761696E206934
:1001C00073202D32302064426D3B2000473D2D329C
:1001D000303B004F757420706F7765722069732013
:1001E0002B352064426D3B2000503D2B353B2000D9
:1001F0004F757420706F77657220697320302064AA
:10020000426D3B2000503D20303B20004F75742054
:10021000706F776572206973202D352064426D3BC5
:100220002000503D2D353B20004F757420706F77B6
:100230006572206973202D313064426D3B2000507F
:100240003D2D31303B0053656E7420616E64207229
:1002500065636569766564207061636B65742025EC
:10026000730A546F74616C207472616E736D69747B
:1002700074696F6E733A2025642C206E6F2065724E
:10028000726F727320666F722025642074696D65C9
:100290007300523D2533643B4C3D2532643B433D66
:1002A000256420001B5B324A48656C6C6F206672C7
:1002B0006F6D2052464D37332E2E2E0A0048656C46
:1002C0006C6F2066726F6D2052582E2E2E001124F6
:1002D0001FBECFEFD0E1DEBFCDBF11E0A0E0B1E0A7
:1002E000E0E7FBE100E00BBF02C007900D92AC36E7
:1002F000B107D9F711E0ACE6B1E001C01D92A93A0F
:10030000B107E1F70E9469040C94B60D0C9400004B
:100310008F70A99A96EA9A95F1F700C095B39F70ED
:1003200095BB95B38295807F892B85BBA99886EA7A
:100330008A95F1F700C008951F93182F82958F704A
:10034000662311F4A89801C0A89A0E948801812F01
:100350000E9488011F91089515BA83EF84BB8BE733
:1003600092E90197F1F700C0000083E360E00E948A
:100370009C018FE097E20197F1F700C0000082E353
:1003800060E00E949C0189EF90E00197F1F700C0C6
:10039000000088E260E00E949C0183EC99E00197F4
:1003A000F1F700C000008CE060E00E949C0183EC4B
:1003B00099E00197F1F700C0000086E060E00E943C
:1003C0009C0183EC99E00197F1F700C000000895CB
:1003D00081E060E00E949C0185EA9EE00197F1F7D0
:1003E00000C0000008956295660F660F607C860F5E
:1003F000806860E00E949C010895CF93DF93EC0138
:100400008881882339F0219661E00E949C018991BE
:100410008823D1F7DF91CF910895B89ABC9ABD98FF
:10042000C4988AB387608ABB08958DEA93EE9DBD18
:100430008CBD8EB585608EBD87B7846087BF0895FB
:100440000F931F93DF93CF93CDB7DEB760970FB6AF
:10045000F894DEBF0FBECDBF0E940D020E943F0A7E
:100460000E9415020E94AC0180E060E076E90E94E3
:10047000590A81E191E09093A6018093A5010E9421
:10048000E80100D000D08E010F5F1F4FEDB7FEB71F
:10049000128301838DEB92E0948383830E94D60ABA
:1004A0000F900F9084EA92E0EDB7FEB792838183BC
:1004B0000E94B60A0F900F90C8010E94FD0160963D
:1004C0000FB6F894DEBF0FBECDBFCF91DF911F9165
:1004D0000F9108951F920F920FB60F9211248F93D0
:1004E0009F9381E080936C018DEA93EE9DBD8CBD5E
:1004F0009F918F910F900FBE0F901F9018958FE7CF
:1005000094E8AEE181509040A040E1F700C00000C7
:1005100008950F931F93DF93CF93CDB7DEB7E29784
:100520000FB6F894DEBF0FBECDBF80916C0188235B
:1005300009F496C010926C01E0E0F1E0DE01119642
:10054000CF01419621912D93E817F907D9F781E062
:10055000BE016F5F7F4F41E10E945C08882349F430
:100560008091810190918201019690938201809304
:100570008101809181019091820123E0883E920760
:1005800021F4109282011092810119AA1AAACE01B7
:10059000C196BE016E5C7F4F0E94E0080E94E60794
:1005A000ADB7BEB71A970FB6F894BEBF0FBEADBFBA
:1005B000EDB7FEB731968E010F5D1F4F12961C935B
:1005C0000E93119722E932E0338322832091810137
:1005D000309182013583248399A99683178280877D
:1005E00011860E94D60A2DB73EB7265F3F4F0FB641
:1005F000F8943EBF0FBE2DBF80E061E00E94F30182
:10060000C8010E94FD0118A28DB79EB708970FB6CA
:10061000F8949EBF0FBE8DBFEDB7FEB7319686E44E
:1006200092E0ADB7BEB712969C938E931197CE0110
:100630000196938382831582148280918101909127
:100640008201978386830E94B60A2DB73EB7285F42
:100650003F4F0FB6F8943EBF0FBE2DBF0E94A806B5
:10066000E2960FB6F894DEBF0FBECDBFCF91DF91FB
:100670001F910F910895FF920F931F93DF93CF93D4
:10068000CDB7DEB763970FB6F894DEBF0FBECDBF10
:10069000F82E062F142F0E94EA068F2D813019F1B3
:1006A000813030F08230D1F1833009F06CC051C01C
:1006B00000D000D0CE010196EDB7FEB792838183C2
:1006C0008FE392E0948383830E94D60A0F900F9069
:1006D00089E292E0EDB7FEB7928381830E94B60A69
:1006E0000F900F9050C000D000D0CE010196EDB712
:1006F000FEB79283818382E292E0948383830E9497
:10070000D60A0F900F908CE092E0EDB7FEB792837F
:1007100081830E94B60A0F900F9035C000D000D0A0
:10072000CE010196EDB7FEB79283818385E092E01A
:10073000948383830E94D60A0F900F9080EF91E0FC
:10074000EDB7FEB7928381830E94B60A0F900F9097
:100750001AC000D000D0CE010196EDB7FEB792834B
:10076000818389EE91E0948383830E94D60A0F905F
:100770000F9083ED91E0EDB7FEB7928381830E94E5
:10078000B60A0F900F90002319F00130B1F51BC08D
:1007900000D000D0CE010796EDB7FEB792838183DB
:1007A0008CEC91E0948383830E94D60A0F900F9083
:1007B00086EB91E0EDB7FEB7928381830E94B60A83
:1007C0000F900F901AC000D000D0CE010796EDB761
:1007D000FEB7928381838FEA91E0948383830E94A2
:1007E000D60A0F900F908BE991E0EDB7FEB7928398
:1007F00081830E94B60A0F900F90113009F11130D9
:1008000020F0123009F051C036C000D000D0CE0127
:100810000D96EDB7FEB79283818386E991E09483CC
:1008200083830E94D60A0F900F9082E891E0EDB783
:10083000FEB7928381830E94B60A0F900F9035C055
:1008400000D000D0CE010D96EDB7FEB79283818324
:100850008DE791E0948383830E94D60A0F900F90D6
:1008600086E691E0EDB7FEB7928381830E94B60AD7
:100870000F900F901AC000D000D0CE010D96EDB7AA
:10088000FEB79283818381E691E0948383830E9403
:10089000D60A0F900F908EE491E0EDB7FEB79283E9
:1008A00081830E94B60A0F900F9080E060E00E9462
:1008B000F301CE0101960E94FD0163960FB6F894F4
:1008C000DEBF0FBECDBFCF91DF911F910F91FF9083
:1008D00008952F923F924F925F926F927F928F92E4
:1008E0009F92AF92BF92CF92DF92EF92FF920F93BF
:1008F0001F93DF93CF93CDB7DEB7A5970FB6F894CC
:10090000DEBF0FBECDBF0E947F020E9420027894FE
:1009100019A21AA21BA283E061E042E023E20E9436
:10092000630983E061E042E00E943B0300E0FF24B2
:10093000EE246894E1F8552453940F2EF3E04F2EE3
:10094000F02D1DA21CA2CC24DD240F2EF3E26F2E6D
:100950007724F02D6C0E7D1E5E010894A11CB11C45
:100960000F2EFDE68F2EF1E09F2EF02D0F2EFFE7CC
:100970002F2EF02D01C000E0C49A87EE93E001977E
:10098000F1F700C000000E94F608882311F0DA9AFF
:1009900001C0DA988FE996E8A1E081509040A0402C
:1009A000E1F700C0000081E0B501A3010E949608B4
:1009B000182FC498882309F05FC00E94F608382ECB
:1009C0000E94E607F82E0894C11CD11CADB7BEB733
:1009D0001A970FB6F894BEBF0FBEADBFEDB7FEB706
:1009E000319612969C928E9211972CE331E03383CC
:1009F0002283D582C48236821782808711860E9424
:100A0000D60A8DB79EB70A960FB6F8949EBF0FBE52
:100A10008DBF80E061E00E94F301C4010E94FD01EE
:100A20008BA1F501E80FF11D1082ADB7BEB7189785
:100A30000FB6F894BEBF0FBEADBFEDB7FEB731968F
:100A400021E031E012963C932E931197B382A2825B
:100A5000D582C482F68217820E94B60A8DB79EB7ED
:100A600008960FB6F8949EBF0FBE8DBF97EEC916BD
:100A700093E0D90609F4FCC0113009F04DC0CE0155
:100A80008196BE016E5D7F4F0E94E008ACA1BDA1C2
:100A90001196BDA3ACA300D000D000D0EDB7FEB737
:100AA0003196ADB7BEB712969C928E92119722EFF7
:100AB00030E0338322838CA19DA1958384830E949F
:100AC000D60AADB7BEB716960FB6F894BEBF0FBE26
:100AD000ADBF80E061E00E94F301C4010E94FD010E
:100AE0008BA1F501E80FF11D108200D000D02EEB94
:100AF00030E0EDB7FEB732832183D482C3820E94F7
:100B0000B60A0F900F900F900F908CA19DA1A3E0BB
:100B1000873E9A0791F52FC0123079F50E94F608AA
:100B2000EDB7FEB73A970FB6F894FEBF0FBEEDBF14
:100B30003196ADB7BEB712969C928E9211972CEA61
:100B400030E033832283D582C48286831782F08685
:100B500011860E94D60A8DB79EB70A960FB6F894F2
:100B60009EBF0FBE8DBF80E061E00E94F301C40113
:100B70000E94FD0102C01DA21CA219B3187F1038EB
:100B800071F4002361F44394942D943009F44424C7
:100B9000842D652D4E2D0E943B0301E020C01034B2
:100BA00071F4002361F45394A52DA23009F4552467
:100BB000842D652D4E2D0E943B0301E033C0103281
:100BC00071F4002361F4E394BE2DB33009F4EE24F4
:100BD000842D652D4E2D0E943B0301E045C0103150
:100BE00009F50023F9F4FA94EF2DEF3F09F4F22C04
:100BF0008F2D0E94E50600D000D0EDB7FEB73196EC
:100C00002CE930E0ADB7BEB712963C932E93119706
:100C1000F28213820E94B60A0F900F900F900F90ED
:100C200001E0AACE183001F5002309F0A5CEF39417
:100C30000CF4FF248F2D0E94E50600D000D0EDB704
:100C4000FEB731962CE830E0ADB7BEB712963C93B4
:100C50002E931197F28213820E94B60A0F900F9082
:100C60000F900F9001E088CE112309F484CE84CE3A
:100C7000CC24DD2482CF1F93162FC0980E94460AF1
:100C8000812F0E94460AC09A1F910895C0980E9421
:100C9000460A80E00E94460AC09A0895EF92FF92A9
:100CA0000F931F93CF93DF93F62EE72E142FC09848
:100CB0000E94460A112379F00F2D8E2DEF2CE701AB
:100CC0007E01F82EE70180E00E94460A89937E01AA
:100CD000E01AE116C0F3C09ADF91CF911F910F91F6
:100CE000FF90EF900895EF92FF920F931F93CF9391
:100CF000DF93062FF72E142FC0980E94460A112367
:100D000069F08F2DE02EE7017E01F82EE701899131
:100D10000E94460A7E01E01AE116C8F3C09ADF91EC
:100D2000CF911F910F91FF90EF9008951F93182F6F
:100D300087E00E94460688231CF4112319F006C0A0
:100D4000112321F080E563E50E943B061F91089581
:100D500082EE60E00E943B0687E00E944606682F14
:100D600087E20E943B06C49880E00E944606682FF6
:100D7000616080E20E943B06C49A089581EE60E0C3
:100D80000E943B06C49880E00E944606682F6E7F52
:100D900080E20E943B06C49A08951F93182F80E0BA
:100DA0000E944606112319F0113041F403C0682F48
:100DB000677F06C0682F68606B7F02C0682F6C6019
:100DC00080E20E943B061F910895682F85E20E94F1
:100DD0003B060895FF920F931F93DF93CF930F92DB
:100DE000CDB7DEB7F82E062F142F86E00E944606F8
:100DF00089838981807D898349812F2D30E023700B
:100E00003070C901880F991F842B898389810170F3
:100E1000082B0983412F50E069819A0121703070BD
:100E2000C901880F991F82959295907F9827807F9E
:100E30009827262F282B42705070CA0195958795C8
:100E4000AC01440F551F440F551F440F551F422B33
:100E50004983698186E20E943B060F90CF91DF9122
:100E60001F910F91FF900895682F6F7381E20E9488
:100E70003B060895682F6F7382E20E943B06089537
:100E8000682F637009F461E083E20E943B060895D5
:100E90009C01462F8A3F910530F06AEF70E00E9476
:100EA000800A615001C060E08FE0213A380708F005
:100EB0006FE0862F90E082959295907F9827807FB3
:100EC0009827403108F04FE0642F682B84E20E949D
:100ED0003B060895CF93DF93EC0183E00E94460622
:100EE000482F4E5F80E3BE010E947306DF91CF91D1
:100EF0000895CF93DF93EC0183E00E944606482FCC
:100F00004E5F8AE2BE010E947306DF91CF91089581
:100F1000CF93DF93EC0183E00E944606482F4E5F9B
:100F20008BE2BE010E947306DF91CF910895682F76
:100F30008CE20E943B060895682F8DE20E943B06DA
:100F40000895682F8EE20E943B060895682F8FE275
:100F50000E943B060895863008F085E08F5E80622F
:100F6000613208F060E20E943B060895682F6F73BB
:100F70008CE30E943B060895282F30E021703070EA
:100F8000220F331F220F331F4170242B862F90E036
:100F900081709070BC01660F771F622B8DE30E94F9
:100FA0003B0608958CE10E9446060895863008F0BD
:100FB00085E08F5E0E944606089580E00E94460606
:100FC00090E08270907095958795089585E00E94D5
:100FD00046068F77089580E00E944606682F62607B
:100FE00080E20E943B068BE49DE10197F1F700C08F
:100FF0000000089580E00E944606682F6D7F80E221
:101000000E943B0608951F930E94DD07182F882336
:1010100011F00E94FA078DE10E944606882369F4C8
:101020008DE361E00E943B068DE10E94460681301F
:1010300021F080E563E70E943B06112311F00E9436
:10104000EB071F910895FF920F931F93082FF62E21
:10105000142F80E00E9446064F2D50E041705070E2
:10106000440F551F42955295507F5427407F542777
:10107000602F70E06170707000247695679507941A
:10108000769567950794762F602D642B212F30E09D
:1010900021703070A90142955295507F5427407FAE
:1010A0005427462B682F6F78642B80E20E943B0602
:1010B0001F910F91FF9008950F931F93CF93DF938C
:1010C000082FEB01142F0E94BE0683EF91E00197D9
:1010D000F1F700C0000087E10E94460685FD20C0B0
:1010E000D99A013099F480EABE01412F0E9473061B
:1010F00087E00E94460690E09C0120733070211525
:101100003105B1F384FD09C080E008C080EBBE0169
:10111000412F0E94730680E001C081E0D99801C090
:1011200080E0DF91CF911F910F910895BF92CF92F0
:10113000DF92EF92FF920F931F93CF93DF93B82E1E
:101140007B01EA0187E00E944606D82E86FF28C070
:1011500000E0CC24C39480E60E944606482F888392
:10116000813230F481E6B7010E944E06102F06C08E
:10117000188282EE602F0E943B061C2D87E10E94A0
:10118000460680FFE8CFD89A8B2D813029F480EB7A
:10119000B70148810E945C08D8980E94A80601C047
:1011A00012E087E26D2D0E943B06812FDF91CF91E7
:1011B0001F910F91FF90EF90DF90CF90BF90089517
:1011C0000F931F93CF93DF93EC018B0188E00E9474
:1011D0004606982F92959F7098838F70F8018083B0
:1011E00080E0DF91CF911F910F910895DF93CF930E
:1011F0000F92CDB7DEB789E00E94460689838981C8
:1012000081700F90CF91DF910895CF92DF92EF928E
:10121000FF920F931F93DF93CF9300D00F92CDB720
:10122000DEB77C016B018AEA8983F70180818A83BA
:10123000FB0180818B8380EA9FE06FE00E9448077A
:101240008A8188239CF18E010F5F1F4F8A810E9443
:10125000E5061B828B81833008F54B8183E061E0DA
:101260000E94EA0687E00E944606682F87E20E94F5
:101270003B0681E0B80141E00E945C08882341F40C
:101280008A81F70180838B81F601808381E00FC022
:101290008B818F5F8B838B818330F8F28A818F5FA4
:1012A0008A838A81882394F680E001C080E00F90D1
:1012B0000F900F90CF91DF911F910F91FF90EF90C2
:1012C000DF90CF900895CF92DF92FF920F931F93FC
:1012D000DF93CF93CDB7DEB72C970FB6F894DEBF70
:1012E0000FBECDBF182FC62EF42E022F8FE79AE126
:1012F000A6E081509040A040E1F700C0000080E0EF
:101300000E949606812F6C2D4F2D0E94EA0682E0E6
:101310000E94CD068FE30E9434078FE30E943A07B4
:1013200083E00E94400780EA9FE06FE00E94480748
:1013300080E060E041E00E942308802F0E94E506E3
:1013400002E611E0C8010E94790787E691E00E9459
:101350008807C8010E946A0700E0802F60E20E94AF
:10136000AB070F5F0530C9F70E94030881E061E019
:1013700041E00E94BC078FE30E94B60781E00E9413
:1013800096060FE111E0FF246E010894C11CD11CE8
:1013900007C003E411E06E010894C11CD11C15C004
:1013A000F80181919191A191B1918F0189839A83E3
:1013B000AB83BC838F2D8062B60144E00E9473062C
:1013C000F394FF2DF93061F7E4CFF8018191919109
:1013D000A191B1918F01B983AA839B838C838F2DB7
:1013E0008062B60144E00E947306F394FF2DFE3044
:1013F00061F7E7E5F1E0DE011196CF010B9621914F
:101400002D93E817F907D9F78EE28E010F5F1F4F72
:10141000B8014BE00E94730686E98A8382E88B83D9
:101420008BE18C838FED898384E2B80144E00E94D4
:1014300073068981897F898384E2B80144E00E9430
:1014400073068FE996E8A1E081509040A040E1F753
:1014500000C0000080E00E9496060E94EB070E94F8
:10146000A8062C960FB6F894DEBF0FBECDBFCF9165
:10147000DF911F910F91FF90DF90CF90089587B378
:10148000866087BB81E58DB96D9808958FB9779B8C
:10149000FECF8FB108951F93182F8A3019F48DE075
:1014A0000E944B0A5D9BFECF1CB980E090E01F912B
:1014B00008951F93182F9B0140E050E068E679E8FB
:1014C00089E090E00E94940A21503040113069F484
:1014D000309398002093990010929B0088E18093AC
:1014E0009A0086E080939D0009C03093900029B94E
:1014F0001BB888E18AB986E0809395001F91089512
:10150000AA1BBB1B51E107C0AA1FBB1FA617B70729
:1015100010F0A61BB70B881F991F5A95A9F7809545
:101520009095BC01CD010895A1E21A2EAA1BBB1B08
:10153000FD010DC0AA1FBB1FEE1FFF1FA217B3079F
:10154000E407F50720F0A21BB30BE40BF50B661FB5
:10155000771F881F991F1A9469F760957095809579
:1015600090959B01AC01BD01CF010895DF93CF930E
:10157000CDB7DEB7FE013596619171918091A501DD
:101580009091A601DC0113962C9113972860139675
:101590002C93AF010E94060BE091A501F091A601EA
:1015A0002381277F2383CF91DF9108950F931F938A
:1015B000DF93CF93CDB7DEB72E970FB6F894DEBF8B
:1015C0000FBECDBF0D891E898EE08C831A830983DF
:1015D0008FEF9FE79E838D839E01275E3F4FCE0155
:1015E00001966F89788DA9010E94060BEF81F8851D
:1015F000E00FF11F10822E960FB6F894DEBF0FBEDB
:10160000CDBFCF91DF911F910F9108952F923F92FF
:101610004F925F926F927F928F929F92AF92BF9202
:10162000CF92DF92EF92FF920F931F93DF93CF93AE
:10163000CDB7DEB72C970FB6F894DEBF0FBECDBF87
:101640006C011B018A01FC0117821682838181FFD4
:10165000D1C12E010894411C511CF6019381F10166
:1016600093FD859193FF81911F01882309F4BEC1E9
:10167000853239F493FD859193FF81911F01853265
:1016800029F490E0B6010E942C0DE7CFEE24FF2450
:1016900020E02032B0F48B3269F08C3228F48032B2
:1016A00051F0833271F40BC08D3239F0803349F43C
:1016B00021602CC02260246029C0286027C02061DE
:1016C00025C027FD2CC0382F30533A3098F426FF20
:1016D00008C08E2D880FE82EEE0CEE0CE80EE30EFF
:1016E00015C08F2D880FF82EFF0CFF0CF80EF30E8F
:1016F00020620CC08E3221F426FD78C1206406C021
:101700008C3611F4206802C0883649F4F10193FD4B
:10171000859193FF81911F01882309F0BACF982FFB
:101720009554933018F09052933028F40C5F1F4F6B
:10173000FFE3F9830DC0833631F0833771F08335D1
:1017400009F060C022C0F801808189830E5F1F4FBD
:10175000420171E0A72EB12C16C062E0662E712CFA
:10176000600E711EF8018080918026FF03C06E2DEF
:1017700070E002C06FEF7FEFC4012C870E94210D43
:101780005C0183012C852F7717C052E0652E712CE8
:10179000600E711EF8018080918026FF03C06E2DBF
:1017A00070E002C06FEF7FEFC4012C870E94160D1E
:1017B0005C012C852068830123FD20C008C080E2E5
:1017C00090E0B6012C870E942C0DFA942C858F2D69
:1017D00090E0A816B90698F311C0F40127FD859191
:1017E00027FF81914F0190E0B6012C870E942C0DBC
:1017F0002C85F110FA940894A108B108A114B10441
:1018000061F7F1C0843611F0893649F527FF08C029
:10181000F80160817181828193810C5F1F4F09C043
:10182000F80160817181882777FD8095982F0E5F80
:101830001F4F4FE6B42EB22297FF09C090958095B6
:10184000709561957F4F8F4F9F4FF0E8BF2AA2019F
:101850002AE030E00E94580D782E741845C0853774
:1018600031F43FEEB32EB2222AE030E025C099EFEA
:10187000B92EB2228F36C1F0803720F4883509F0B6
:10188000B5C00DC0803721F0883709F0AFC002C065
:1018900020E1B22AB4FE0BC084E0B82A08C0B4FE2E
:1018A00009C0E6E0BE2A06C028E030E005C020E11D
:1018B00030E002C020E132E0B7FE08C0F8016081EC
:1018C0007181828193810C5F1F4F07C0F801608195
:1018D000718180E090E00E5F1F4FA2010E94580DC1
:1018E000782E7418FFE7BF22B6FE0BC02EEFB2228F
:1018F0007E1438F4B4FE07C0B2FC05C08FEEB822E7
:1019000002C0A72C01C0AE2C8B2D90E0B4FE0DC000
:10191000FE01E70DF11D2081203319F4E9EEBE220E
:1019200009C0A394B2FE06C004C0867890700097E8
:1019300009F0A3948B2C9924B3FC14C0B0FE0FC003
:10194000AF1428F4E72CEF0CEA18AF2C08C0E72CF2
:1019500006C080E290E0B6010E942C0DA394AF1463
:10196000C0F304C0AF1410F4FA1801C0FF2484FEC1
:101970000FC080E390E0B6010E942C0D82FE1FC0D4
:1019800081FE03C088E590E010C088E790E00DC0BC
:10199000C40186789070009791F081FC02C080E2CB
:1019A00001C08BE2B7FC8DE290E0B6010E942C0DE5
:1019B00006C080E390E0B6010E942C0DEA947E14EC
:1019C000C0F37A94F201E70DF11D808190E0B60139
:1019D0000E942C0D7720A9F706C080E290E0B601A6
:1019E0000E942C0DFA94FF20C1F737CEF601268114
:1019F000378102C02FEF3FEFC9012C960FB6F89444
:101A0000DEBF0FBECDBFCF91DF911F910F91FF9031
:101A1000EF90DF90CF90BF90AF909F908F907F908E
:101A20006F905F904F903F902F900895FC0105902C
:101A3000615070400110D8F7809590958E0F9F1FD0
:101A40000895FC016150704001900110D8F7809515
:101A500090958E0F9F1F08950F931F93CF93DF9341
:101A60008C01EB018B8181FF1BC082FF0DC02E8199
:101A70003F818C819D812817390764F4E881F981C1
:101A80000193F983E88306C0E885F985802F0995DD
:101A9000009731F48E819F8101969F838E8302C0CF
:101AA0000FEF1FEFC801DF91CF911F910F910895A4
:101AB000FA01AA27283051F1203181F1E8946F937F
:101AC0006E7F6E5F7F4F8F4F9F4FAF4FB1E03ED025
:101AD000B4E03CD0670F781F891F9A1FA11D680FC3
:101AE000791F8A1F911DA11D6A0F711D811D911DF6
:101AF000A11D20D009F468943F912AE0269F11246B
:101B00003019305D3193DEF6CF010895462F4770CE
:101B1000405D4193B3E00FD0C9F7F6CF462F4F7029
:101B2000405D4A3318F0495D31FD4052419302D087
:101B3000A9F7EACFB4E0A69597958795779567952D
:101B4000BA95C9F700976105710508959B01AC012D
:101B50000A2E06945795479537952795BA95C9F754
:101B6000620F731F841F951FA01D0895F894FFCF67
:101B7000303132333435363738393A3B3C3D3E3FED
:101B80007800000002000000004B0A000000004046
:101B90004B01E2C04B0000D0FC8C0299003941D9C6
:101BA00096821B24027FA6000000000000000000B7
:101BB0000000000000000000000000000000000025
:101BC0007312000080B446412008048120CFF7FE44
:0C1BD000FFFF344310100139383736C2D3
:00000001FF
