:100000000C94AF000C94CE000C94CE000C94CE0057
:100010000C94CE000C94CE000C94CE000C94CE0028
:100020000C94CE000C94CE000C94CE000C94CE0018
:100030000C94CE000C94CE000C94AD010C94CE0028
:100040000C94CE000C94CE000C94CE000C94CE00F8
:100050000C94CE000C94CE000C94CE000C94CE00E8
:100060000C94CE000C94CE000C94CE000C94CE00D8
:100070000C94CE000C94CE000C94CE000C94CE00C8
:100080000C94CE000C94CE000C94CE0046696E64A5
:10009000696E6720726563656976657200443D200C
:1000A0003200443D2E3300443D203100473D2020A6
:1000B000303B00473D2D32303B00503D2B353B203F
:1000C00000503D20303B2000503D2D353B2000505E
:1000D0003D2D31303B0053656E7420616E6420729B
:1000E00065636569766564207061636B657420255E
:1000F000730A546F74616C207472616E736D6974ED
:1001000074696F6E733A2025642C206E6F206572BF
:10011000726F727320666F722025642074696D653A
:100120007300523D2533643B4C3D2532643B433DD7
:10013000256420001B5B324A48656C6C6F20667238
:100140006F6D2052464D37332E2E2E0A0048656CB7
:100150006C6F2066726F6D2052582E2E2E00112467
:100160001FBECFEFD0E1DEBFCDBF11E0A0E0B1E018
:10017000E4EAF6E100E00BBF02C007900D92AA3955
:10018000B107D9F711E0AAE9B1E001C01D92AC3D79
:10019000B107E1F70E9491030C94500B0C940000FE
:1001A0008F70A99A97EF9A95F1F7000095B39F7019
:1001B00095BB95B38295807F892B85BBA99887EFE6
:1001C0008A95F1F7000008951F93182F82958F707C
:1001D000662311F4A89801C0A89A0E94D000812F2C
:1001E0000E94D0001F91089515BA83EF84BB8FE45D
:1001F00099ED0197F1F700C083E360E00E94E4000D
:1002000083EF99E30197F1F782E360E00E94E40055
:1002100082E791E00197F1F700C0000088E260E01A
:100220000E94E4008CE79EE00197F1F700C0000017
:100230008CE060E00E94E4008CE79EE00197F1F71B
:1002400000C0000086E060E00E94E4008CE79EE0D1
:100250000197F1F700C00000089581E060E00E947E
:10026000E4008BEB95E10197F1F708956295660F35
:10027000660F607C860F806860E00E94E40008954D
:10028000CF93DF93EC018881882339F0219661E0D8
:100290000E94E40089918823D1F7DF91CF910895DE
:1002A000B89ABC9ABD98C4988AB387608ABB0895EF
:1002B0008DEA93EE9DBD8CBD8EB585608EBD87B7F2
:1002C000846087BF08950F931F93DF93CF93CDB7BB
:1002D000DEB760970FB6F894DEBF0FBECDBF0E94A9
:1002E00050010E94D9070E9458010E94F40080E04A
:1002F00060E076E90E94F30781E191E09093D901F3
:100300008093D8010E942D0100D000D08E010F5F94
:100310001F4FEDB7FEB7128301838DE491E0948304
:1003200083830E9470080F900F9084E391E0EDB7F3
:10033000FEB7928381830E9450080F900F90C801EE
:100340000E94400160960FB6F894DEBF0FBECDBF8D
:10035000CF91DF911F910F9108951F920F920FB6C9
:100360000F9211248F939F9381E080939A018DEADD
:1003700093EE9DBD8CBD9F918F910F900FBE0F90FE
:100380001F9018958BEE95E4ADE281509040A0400F
:10039000E1F700C0000008950F931F93DF93CF9300
:1003A000CDB7DEB7E2970FB6F894DEBF0FBECDBF74
:1003B00080919A01882309F496C010929A01E0E096
:1003C000F1E0DE011196CF01419621912D93E817BE
:1003D000F907D9F781E0BE016F5F7F4F41E10E94CD
:1003E000CD06882349F48091AF019091B001019628
:1003F0009093B0018093AF018091AF019091B001D3
:1004000023E0883E920721F41092B0011092AF01D0
:1004100019AA1AAACE01C196BE016E5C7F4F0E9436
:1004200051070E947607ADB7BEB71A970FB6F8947A
:10043000BEBF0FBEADBFEDB7FEB731968E010F5DEB
:100440001F4F12961C930E93119722E231E03383D3
:1004500022832091AF013091B0013583248399A983
:1004600096831782808711860E9470082DB73EB749
:10047000265F3F4F0FB6F8943EBF0FBE2DBF80E002
:1004800061E00E943601C8010E94400118A28DB7A8
:100490009EB708970FB6F8949EBF0FBE8DBFEDB7FD
:1004A000FEB7319686ED90E0ADB7BEB712969C933D
:1004B0008E931197CE0101969383828315821482C5
:1004C0008091AF019091B001978386830E9450087C
:1004D0002DB73EB7285F3F4F0FB6F8943EBF0FBE13
:1004E0002DBF0E94A104E2960FB6F894DEBF0FBEA6
:1004F000CDBFCF91DF911F910F910895FF920F9380
:100500001F93DF93CF93CDB7DEB7A8970FB6F894BC
:10051000DEBF0FBECDBF182FF62E042F8823B9F4EF
:1005200000D000D0CE014496ADB7BEB712969C93D2
:100530008E9311978FEC90E014969C938E93139763
:100540000E9470080F900F900F900F902EC0813076
:1005500099F400D000D0CE014496EDB7FEB7928357
:10056000818388EC90E0948383830E9470080F90CD
:100570000F900F900F902DC08230B9F400D000D0B2
:10058000CE014496ADB7BEB712969C938E93119749
:1005900081EC90E014969C938E9313970E947008C0
:1005A0000F900F900F900F9014C0133091F400D063
:1005B00000D0CE014496EDB7FEB7928381838AEBDB
:1005C00090E0948383830E9470080F900F900F90A7
:1005D0000F90FF20B9F400D000D0CE014B96ADB7FC
:1005E000BEB712969C938E93119783EB90E014966E
:1005F0009C938E9313970E9470080F900F900F900A
:100600000F9015C0BF2DB13091F400D000D0CE01B5
:100610004B96EDB7FEB7928381838CEA90E094838A
:1006200083830E9470080F900F900F900F9000230B
:10063000B9F400D000D0CE018296ADB7BEB7129605
:100640009C938E93119787EA90E014969C938E93D7
:1006500013970E9470080F900F900F900F902DC06D
:10066000013099F400D000D0CE018296EDB7FEB7EC
:100670009283818382EA90E0948383830E9470084E
:100680000F900F900F900F9018C00230B1F400D06F
:1006900000D0CE018296ADB7BEB712969C938E93D2
:1006A00011978DE990E014969C938E9313970E9476
:1006B00070080F900F900F900F909E012C5E3F4F8F
:1006C000FE013196CE014B96BE016E5D7F4F40E03C
:1006D000D9015D919D015083DC015D91CD0156836F
:1006E000DB015D91BD0154874F5F3196463081F744
:1006F00080E060E00E943601CE0101960E94400138
:10070000812F6F2D402F0E94F404A8960FB6F89405
:10071000DEBF0FBECDBFCF91DF911F910F91FF9034
:100720000895BF92CF92DF92EF92FF920F931F93A3
:10073000DF93CF9300D0CDB7DEB70E94C2010E94F5
:100740006301789482E089831A8283E061E042E069
:100750000E94E20500D000D00BE911E0EDB7FEB732
:10076000128301838CE890E0948383830E94700855
:100770000F900F900F900F9080E061E00E94360183
:10078000C8010E944001C49ACE010296BE016F5F6B
:100790007F4F0E947B0783E061E049810E947E02D7
:1007A00000E0EE24E3940F2EF3E0FF2EF02DCC2496
:1007B000DD24D3940F2EFFE7BF2EF02D01C00C2DAA
:1007C000C49A8BEC95E00197F1F700C00E9467078F
:1007D000882311F0DA9A01C0DA980E94CC01C498FB
:1007E00019B3187F103871F4002361F4F3949F2D2E
:1007F000943009F4FC2C8F2D6E2D49810E947E02CD
:100800000D2D21C0103471F4002361F4E394EE2D1A
:10081000E23009F4EC2C8F2D6E2D49810E947E026E
:100820000D2D20C0103279F4002369F489818F5F87
:100830008983833009F4C9828F2D6E2D49810E94EE
:100840007E020D2D1FC0103169F4002359F48A81F6
:1008500081508A838F3F09F4BA828A810E94EF0413
:100860000D2DAECF183071F4002309F0A9CF8A8185
:100870008F5F8A8388230CF4CA828A810E94EF04E6
:100880000D2D9ECF112309F49ACF9ACF1F93162FC7
:10089000C0980E94E007812F0E94E007C09A1F9134
:1008A0000895C0980E94E00780E00E94E007C09A87
:1008B0000895EF92FF920F931F93CF93DF93F62E3D
:1008C000E72E142FC0980E94E007112379F00F2D16
:1008D0008E2DEF2CE7017E01F82EE70180E00E94CB
:1008E000E00789937E01E01AE116C0F3C09ADF9118
:1008F000CF911F910F91FF90EF900895EF92FF928B
:100900000F931F93CF93DF93062FF72E142FC098CA
:100910000E94E007112369F08F2DE02EE7017E0190
:10092000F82EE70189910E94E0077E01E01AE116A6
:10093000C8F3C09ADF91CF911F910F91FF90EF9074
:10094000089582EE60E00E94460487E00E94510410
:10095000682F87E20E944604C49880E00E945104F8
:10096000682F616080E20E944604C49A089581EE77
:1009700060E00E944604C49880E00E945104682F01
:100980006E7F80E20E944604C49A08951F93182F38
:1009900087E00E94510488231CF4112319F006C03B
:1009A000112321F080E563E50E9446041F9108951C
:1009B00080E00E945104682F626080E20E94460439
:1009C00086E79BE20197F1F70000089580E00E941E
:1009D0005104682F6D7F80E20E9446040895682FBD
:1009E00085E20E9446040895FF920F931F93DF93C0
:1009F000CF930F92CDB7DEB7F82E062F142F86E0D7
:100A00000E94510489838981807D898349812F2DAA
:100A100030E023703070C901880F991F842B8983BF
:100A200089810170082B0983412F50E069819A0167
:100A300021703070C901880F991F82959295907F1F
:100A40009827807F9827262F282B42705070CA0144
:100A500095958795AC01440F551F440F551F440FC2
:100A6000551F422B4983698186E20E9446040F90FC
:100A7000CF91DF911F910F91FF900895682F6370C0
:100A800009F461E083E20E94460408959C01462F28
:100A90008A3F910530F06AEF70E00E941A086150B9
:100AA00001C060E08FE0213A380708F06FE0862F40
:100AB00090E082959295907F9827807F982740318B
:100AC00008F04FE0642F682B84E20E9446040895EA
:100AD000FF920F931F93082FF62E142F80E00E9491
:100AE00051044F2D50E041705070440F551F4295F6
:100AF0005295507F5427407F5427602F70E06170DB
:100B0000707000247695679507947695679507949D
:100B1000762F602D642B212F30E021703070A901D9
:100B200042955295507F5427407F5427462B682F7B
:100B30006F78642B80E20E9446041F910F91FF9012
:100B40000895CF93DF93EC0183E00E945104482F76
:100B50004E5F80E3BE010E947E04DF91CF91089535
:100B6000CF93DF93EC0183E00E945104482F4E5F46
:100B70008AE2BE010E947E04DF91CF910895CF9357
:100B8000DF93EC0183E00E945104482F4E5F8BE21B
:100B9000BE010E947E04DF91CF910895682F8CE200
:100BA0000E9446040895682F8DE20E94460408952D
:100BB000682F8EE20E9446040895682F8FE20E94FB
:100BC00046040895BF92CF92DF92EF92FF920F9367
:100BD0001F93DF93CF93CDB7DEB72C970FB6F89462
:100BE000DEBF0FBECDBFC82ED62EB42E8BEF9DE03C
:100BF000A9E081509040A040E1F700C0000080E0F3
:100C00000E94C60402E611E00F2EF8E2EF2EFF2448
:100C1000F02DE00EF11ED8018C91806211966C913E
:100C20000E9446040E5F1F4F0E151F05A1F78C2D65
:100C30006D2D4B2D0E94F40483E00E943E0580EA56
:100C40009FE06FE00E94460580E060E041E00E9486
:100C5000680500E911E0C8010E94B00585E991E04E
:100C60000E94BF05C8010E94A1058DE10E945104A8
:100C7000882321F480E563E70E94460480918E0179
:100C8000806260918F010E94460480918C01806295
:100C900060918D010E94460481E00E94C6040FE12C
:100CA00011E0EE246E010894C11CD11C07C003E4BE
:100CB00011E06E010894C11CD11C15C0F80181918E
:100CC0009191A191B1918F0189839A83AB83BC8368
:100CD0008E2D8062B60144E00E947E04E394FE2DD6
:100CE000F93061F7E4CFF80181919191A191B1912F
:100CF0008F01B983AA839B838C838E2D8062B6017A
:100D000044E00E947E04E394FE2DFE3061F7E7E5A7
:100D1000F1E0DE011196CF010B9621912D93E8179A
:100D2000F907D9F78EE28E010F5F1F4FB8014BE034
:100D30000E947E0486E98A8382E88B838BE18C8320
:100D40008FED898384E2B80144E00E947E048981AA
:100D5000897F898384E2B80144E00E947E048EE7A3
:100D600093E4A2E081509040A040E1F700C0000071
:100D700080E00E94C6040E94A1042C960FB6F8944D
:100D8000DEBF0FBECDBFCF91DF911F910F91FF90BE
:100D9000EF90DF90CF90BF9008950F931F93CF9364
:100DA000DF93082FEB01142F0E94B70485EE92E029
:100DB0000197F1F700C0000087E10E94510485FD12
:100DC00020C0D99A013099F480EABE01412F0E94D7
:100DD0007E0487E00E94510490E09C0120733070F3
:100DE00021153105B1F384FD09C080E008C080EB16
:100DF000BE01412F0E947E0480E001C081E0D998AD
:100E000001C080E0DF91CF911F910F910895BF92B3
:100E1000CF92DF92EF92FF920F931F93CF93DF93C6
:100E2000B82E7B01EA0187E00E945104D82E86FF8C
:100E300028C000E0CC24C39480E60E945104482FCF
:100E40008883813230F481E6B7010E945904102F63
:100E500006C0188282EE602F0E9446041C2D87E196
:100E60000E94510480FFE8CFD89A8B2D813029F45D
:100E700080EBB70148810E94CD06D8980E94A1045A
:100E800001C012E087E26D2D0E944604812FDF91A0
:100E9000CF911F910F91FF90EF90DF90CF90BF9077
:100EA00008950F931F93CF93DF93EC018B0188E09C
:100EB0000E945104982F92959F7098838F70F8012B
:100EC000808380E0DF91CF911F910F910895DF9390
:100ED000CF930F92CDB7DEB789E00E94510489838A
:100EE000898181700F90CF91DF91089585E00E94F4
:100EF00051048F770895CF92DF92EF92FF920F9374
:100F00001F93DF93CF9300D00F92CDB7DEB77C0154
:100F10006B018AEA8983F70180818A83FB018081E2
:100F20008B8380EA9FE06FE00E9446058A818823D8
:100F30009CF18E010F5F1F4F8A810E94EF041B827C
:100F40008B81833008F54B8183E061E00E94F404DB
:100F500087E00E945104682F87E20E94460481E0E6
:100F6000B80141E00E94CD06882341F48A81F7014F
:100F700080838B81F601808381E00FC08B818F5F3E
:100F80008B838B818330F8F28A818F5F8A838A8199
:100F9000882394F680E001C080E00F900F900F90BE
:100FA000CF91DF911F910F91FF90EF90DF90CF9045
:100FB000089587B3866087BB81E58DB96D980895E4
:100FC0008FB9779BFECF8FB108951F93182F8A306A
:100FD00019F48DE00E94E5075D9BFECF1CB980E00F
:100FE00090E01F9108951F93182F9B0140E050E05F
:100FF00069ED75E28EE090E00E942E0821503040AD
:10100000113069F4309398002093990010929B005E
:1010100088E180939A0086E080939D0009C0309318
:10102000900029B91BB888E18AB986E080939500C1
:101030001F910895AA1BBB1B51E107C0AA1FBB1F2C
:10104000A617B70710F0A61BB70B881F991F5A9554
:10105000A9F780959095BC01CD010895A1E21A2EC3
:10106000AA1BBB1BFD010DC0AA1FBB1FEE1FFF1F4C
:10107000A217B307E407F50720F0A21BB30BE40B9C
:10108000F50B661F771F881F991F1A9469F76095E3
:101090007095809590959B01AC01BD01CF0108959D
:1010A000DF93CF93CDB7DEB7FE0135966191719195
:1010B0008091D8019091D901DC0113962C9113975E
:1010C000286013962C93AF010E94A008E091D801EC
:1010D000F091D9012381277F2383CF91DF91089558
:1010E0000F931F93DF93CF93CDB7DEB72E970FB635
:1010F000F894DEBF0FBECDBF0D891E898EE08C83B4
:101100001A8309838FEF9FE79E838D839E01275E5D
:101110003F4FCE0101966F89788DA9010E94A008EA
:10112000EF81F885E00FF11F10822E960FB6F8942C
:10113000DEBF0FBECDBFCF91DF911F910F910895FC
:101140002F923F924F925F926F927F928F929F92D7
:10115000AF92BF92CF92DF92EF92FF920F931F93C5
:10116000DF93CF93CDB7DEB72C970FB6F894DEBFE1
:101170000FBECDBF6C011B018A01FC0117821682D4
:10118000838181FFD1C12E010894411C511CF601BD
:101190009381F10193FD859193FF81911F01882334
:1011A00009F4BEC1853239F493FD859193FF819195
:1011B0001F01853229F490E0B6010E94C60AE7CFEC
:1011C000EE24FF2420E02032B0F48B3269F08C3220
:1011D00028F4803251F0833271F40BC08D3239F033
:1011E000803349F421602CC02260246029C028602B
:1011F00027C0206125C027FD2CC0382F30533A303E
:1012000098F426FF08C08E2D880FE82EEE0CEE0C09
:10121000E80EE30E15C08F2D880FF82EFF0CFF0C83
:10122000F80EF30E20620CC08E3221F426FD78C138
:10123000206406C08C3611F4206802C0883649F458
:10124000F10193FD859193FF81911F01882309F09E
:10125000BACF982F9554933018F09052933028F4C9
:101260000C5F1F4FFFE3F9830DC0833631F08337E6
:1012700071F0833509F060C022C0F8018081898354
:101280000E5F1F4F420171E0A72EB12C16C062E025
:10129000662E712C600E711EF8018080918026FFF1
:1012A00003C06E2D70E002C06FEF7FEFC4012C878A
:1012B0000E94BB0A5C0183012C852F7717C052E086
:1012C000652E712C600E711EF8018080918026FFC2
:1012D00003C06E2D70E002C06FEF7FEFC4012C875A
:1012E0000E94B00A5C012C852068830123FD20C088
:1012F00008C080E290E0B6012C870E94C60AFA94EA
:101300002C858F2D90E0A816B90698F311C0F40132
:1013100027FD859127FF81914F0190E0B6012C8731
:101320000E94C60A2C85F110FA940894A108B1080D
:10133000A114B10461F7F1C0843611F0893649F582
:1013400027FF08C0F80160817181828193810C5F61
:101350001F4F09C0F80160817181882777FD809552
:10136000982F0E5F1F4F4FE6B42EB22297FF09C091
:1013700090958095709561957F4F8F4F9F4FF0E8C6
:10138000BF2AA2012AE030E00E94F20A782E7418E7
:1013900045C0853731F43FEEB32EB2222AE030E06B
:1013A00025C099EFB92EB2228F36C1F0803720F4D4
:1013B000883509F0B5C00DC0803721F0883709F0B5
:1013C000AFC002C020E1B22AB4FE0BC084E0B82A4C
:1013D00008C0B4FE09C0E6E0BE2A06C028E030E03E
:1013E00005C020E130E002C020E132E0B7FE08C0D5
:1013F000F80160817181828193810C5F1F4F07C06A
:10140000F8016081718180E090E00E5F1F4FA201C2
:101410000E94F20A782E7418FFE7BF22B6FE0BC0B6
:101420002EEFB2227E1438F4B4FE07C0B2FC05C021
:101430008FEEB82202C0A72C01C0AE2C8B2D90E0FD
:10144000B4FE0DC0FE01E70DF11D2081203319F41B
:10145000E9EEBE2209C0A394B2FE06C004C086789D
:101460009070009709F0A3948B2C9924B3FC14C0BE
:10147000B0FE0FC0AF1428F4E72CEF0CEA18AF2C25
:1014800008C0E72C06C080E290E0B6010E94C60AC0
:10149000A394AF14C0F304C0AF1410F4FA1801C041
:1014A000FF2484FE0FC080E390E0B6010E94C60ACC
:1014B00082FE1FC081FE03C088E590E010C088E76F
:1014C00090E00DC0C40186789070009791F081FC87
:1014D00002C080E201C08BE2B7FC8DE290E0B60171
:1014E0000E94C60A06C080E390E0B6010E94C60AC8
:1014F000EA947E14C0F37A94F201E70DF11D808125
:1015000090E0B6010E94C60A7720A9F706C080E2E3
:1015100090E0B6010E94C60AFA94FF20C1F737CEC8
:10152000F6012681378102C02FEF3FEFC9012C96CB
:101530000FB6F894DEBF0FBECDBFCF91DF911F91E4
:101540000F91FF90EF90DF90CF90BF90AF909F9062
:101550008F907F906F905F904F903F902F90089565
:10156000FC010590615070400110D8F7809590956E
:101570008E0F9F1F0895FC01615070400190011073
:10158000D8F7809590958E0F9F1F08950F931F9306
:10159000CF93DF938C01EB018B8181FF1BC082FF16
:1015A0000DC02E813F818C819D812817390764F4FD
:1015B000E881F9810193F983E88306C0E885F9851C
:1015C000802F0995009731F48E819F8101969F832A
:1015D0008E8302C00FEF1FEFC801DF91CF911F91E3
:1015E0000F910895FA01AA27283051F1203181F195
:1015F000E8946F936E7F6E5F7F4F8F4F9F4FAF4F1B
:10160000B1E03ED0B4E03CD0670F781F891F9A1F2D
:10161000A11D680F791F8A1F911DA11D6A0F711DE1
:10162000811D911DA11D20D009F468943F912AE0ED
:10163000269F11243019305D3193DEF6CF010895D5
:10164000462F4770405D4193B3E00FD0C9F7F6CF06
:10165000462F4F70405D4A3318F0495D31FD4052CE
:10166000419302D0A9F7EACFB4E0A6959795879564
:1016700077956795BA95C9F7009761057105089543
:101680009B01AC010A2E06945795479537952795EF
:10169000BA95C9F7620F731F841F951FA01D089587
:0416A000F894FFCFEC
:1016A400303132333435363738393A3B3C3D3E3FBE
:1016B400780000000200000000E507000000004080
:1016C4004B01E2C04B0000D0FC8C0299003941D997
:1016D40096821B24027FA600000000000000000088
:1016E40000000000000000000000000000000000F6
:1016F4007312000080B446412008048120CFF7FE15
:10170400FFFF000F013F0201030304FF0517060753
:101714000707080009000CC30DC40EC50FC611202D
:101724001220132014201520162017001C3F1D071B
:0A173400344310100139383736C273
:00000001FF
