:100000000C9467000C9486000C9486000C94860077
:100010000C9486000C9486000C9486000C94860048
:100020000C9486000C9486000C9486000C94860038
:100030000C9486000C9486000C9469010C94860044
:100040000C9486000C9486000C9486000C94860018
:100050000C9486000C9486000C9486000C94860008
:100060000C9486000C9486000C9486000C948600F8
:100070000C9486000C9486000C9486000C948600E8
:100080000C9486000C9486000C948600526563657F
:100090006976656420256420435243005265636598
:1000A000697665642025642074696D657300536505
:1000B0006E742025642074696D6573200048656C3A
:1000C0006C6F2066726F6D2052582E2E2E001124F8
:1000D0001FBECFEFD0E1DEBFCDBF11E0A0E0B1E0A9
:1000E000E8E9FFE000E00BBF02C007900D92AA39DB
:1000F000B107D9F711E0AAE9B1E001C01D92A83C0F
:10010000B107E1F70E94E5020C94CA070C940000C5
:100110008F70A99A96EA9A95F1F700C095B39F70EF
:1001200095BB95B38295807F892B85BBA99886EA7C
:100130008A95F1F700C008951F93182F82958F704C
:10014000662311F4A89801C0A89A0E948800812F04
:100150000E9488001F91089515BA83EF84BB8BE736
:1001600092E90197F1F700C0000083E360E00E948C
:100170009C008FE097E20197F1F700C0000082E356
:1001800060E00E949C0089EF90E00197F1F700C0C9
:10019000000088E260E00E949C0083EC99E00197F7
:1001A000F1F700C000008CE060E00E949C0083EC4E
:1001B00099E00197F1F700C0000086E060E00E943E
:1001C0009C0083EC99E00197F1F700C000000895CE
:1001D00081E060E00E949C0085EA9EE00197F1F7D3
:1001E00000C0000008956295660F660F607C860F60
:1001F000806860E00E949C000895CF93DF93EC013B
:100200008881882339F0219661E00E949C008991C1
:100210008823D1F7DF91CF91089587B3866087BB9C
:1002200081E58DB96D980895B89ABC9ABD98C49827
:100230008AB387608ABB08958DEA93EE9DBD8CBD1D
:100240008EB585608EBD87B7846087BF08950F9394
:100250001F93DF93CF93CDB7DEB760970FB6F894B7
:10026000DEBF0FBECDBF0E9414010E940D010E948F
:100270001C010E94AC0080E060E076E90E94A104CD
:1002800081E191E09093C5018093C4010E94E80050
:1002900000D000D08E010F5F1F4FEDB7FEB7128365
:1002A00001838DEB90E0948383830E94EA040F9096
:1002B0000F900F900F90C8010E94FD0060960FB63E
:1002C000F894DEBF0FBECDBFCF91DF911F910F918C
:1002D00008951F920F920FB60F9211248F939F9340
:1002E0008091C00181608093C0019BB384E0892725
:1002F0008BBB8DEA93EE9DBD8CBD9F918F910F902E
:100300000FBE0F901F9018958FE794E8AEE18150D3
:100310009040A040E1F700C0000008950F931F93A4
:10032000CF93DF93082FEB01142F0E94720387E114
:100330000E94080385FD19C0D99A802FBE01412F64
:100340000E9437038FE996E8A1E081509040A040D9
:10035000E1F700C00000D9988FE996E8A1E081504C
:100360009040A040E1F700C00000DF91CF911F91C5
:100370000F9108950F931F93DF93CF93CDB7DEB7FF
:10038000E0970FB6F894DEBF0FBECDBF8091C001DD
:1003900080FF43C08E7F8093C001E0E0F1E0DE018A
:1003A0001196CF01419621912D93E817F907D9F7BE
:1003B00080EBBE016F5F7F4F41E10E948E01209173
:1003C0009D01822F8F5F80939D0100D000D000D0CF
:1003D000EDB7FEB731968E010F5D1F4FADB7BEB7BB
:1003E00012961C930E9311978EEA90E0938382836A
:1003F000248315820E94EA048DB79EB706960FB635
:10040000F8949EBF0FBE8DBF80E061E00E94F300B4
:10041000C8010E94FD000E945C03E0960FB6F894AC
:10042000DEBF0FBECDBFCF91DF911F910F91089519
:10043000BF92CF92DF92EF92FF920F931F93DF93C1
:10044000CF93CDB7DEB7E0970FB6F894DEBF0FBEFF
:10045000CDBF87E00E940803B82E86FFA2C07E01B0
:100460000894E11CF11C8E010F5D1F4F0F2EFCE95B
:10047000CF2EF0E0DF2EF02D80E60E940803482FFB
:10048000813288F581E6B7010E94120380919B01B9
:1004900090919C019C012F5F3F4F30939C012093D2
:1004A0009B0100D000D000D0EDB7FEB73196ADB7BC
:1004B000BEB712961C930E931197D382C282958376
:1004C00084830E94EA048DB79EB706960FB6F8940F
:1004D0009EBF0FBE8DBF80E061E00E94F300C801A7
:1004E0000E94FD0004C082EE60E00E94FB0287E1F2
:1004F0000E94080380FFC0CFFE013196CE014196D5
:1005000020E03191230FE817F907D9F789892817D7
:1005100009F047C08981803309F043C0D89A8FE938
:1005200096E8A1E081509040A040E1F700C00000B3
:100530008FE996E8A1E081509040A040E1F700C02B
:100540000000D89880EBBE016F5F7F4F41E10E94B1
:100550008E010E945C0300D000D000D0EDB7FEB742
:1005600031968E010F5D1F4FADB7BEB712961C932B
:100570000E9311978CE890E0938382831582148206
:100580000E94EA048DB79EB706960FB6F8949EBFF8
:100590000FBE8DBF80E061E00E94F300C8010E94A1
:1005A000FD0087E26B2D0E94FB02E0960FB6F894E7
:1005B000DEBF0FBECDBFCF91DF911F910F91FF9096
:1005C000EF90DF90CF90BF9008950E9484010E9429
:1005D0002701789410929E018091C0018E7F8093B4
:1005E000C0010E9498030E941802FDCF8FB9779B2B
:1005F000FECF8FB108951F93162FC0980E94F60268
:100600008093C101812F0E94F602C09A1F91089524
:10061000C0980E94F6028093C10180E00E94F60219
:10062000C09A0895EF92FF920F931F93CF93DF9399
:10063000F62EE72E142FC0980E94F602112379F0AF
:100640000F2D8E2DEF2CE7017E01F82EE70180E0C3
:100650000E94F60289937E01E01AE116C0F3C09A67
:10066000DF91CF911F910F91FF90EF900895EF923E
:10067000FF920F931F93CF93DF93062FF72E142F24
:10068000C0980E94F6028093C101112369F08F2D5A
:10069000E02EE7017E01F82EE70189910E94F60223
:1006A0007E01E01AE116C8F3C09ADF91CF911F9145
:1006B0000F91FF90EF90089582EE60E00E94FB02A0
:1006C00087E00E940803682F87E20E94FB02C4981B
:1006D00080E00E940803682F616080E20E94FB02B4
:1006E000C49A089581EE60E00E94FB02C49880E005
:1006F0000E940803682F6E7F80E20E94FB02C49A6A
:1007000008951F93182F87E00E94080388231CF484
:10071000112319F006C0112321F080E563E50E9442
:10072000FB021F910895682F85E20E94FB02089545
:10073000CF92DF92EF92FF920F931F93DF93CF93AD
:10074000CDB7DEB72C970FB6F894DEBF0FBECDBF86
:100750008FE79AE1A6E081509040A040E1F700C009
:10076000000080E00E94810302E611E00F2EF8E213
:10077000EF2EFF24F02DE00EF11ED8018C91806247
:1007800011966C910E94FB020E5F1F4F0E151F0504
:10079000A1F70F2EF4E3CF2EF02DC9820F2EF3E434
:1007A000FF2EF02DFA82EE246894E4F8EB82EC82BE
:1007B000DD24D394DD828AE28E010F5F1F4FB801E2
:1007C00045E00E94370389E3898388E38A8387E3CE
:1007D0008B8386E38C8382EC8D838BE2B80145E0CA
:1007E0000E943703C982FA82EB82EC82DD8280E3C9
:1007F000B80145E00E9437038DE10E940803882379
:1008000021F480E563E70E94FB0280918E01806203
:1008100060918F010E94FB0280918C018062609147
:100820008D010E94FB0281E00E9481030FE111E033
:10083000EE246E010894C11CD11C07C003E411E032
:100840006E010894C11CD11C15C0F80181919191D1
:10085000A191B1918F0189839A83AB83BC838E2D43
:100860008062B60144E00E943703E394FE2DF93024
:1008700061F7E4CFF80181919191A191B1918F013C
:10088000B983AA839B838C838E2D8062B60144E05A
:100890000E943703E394FE2DFE3061F7E7E5F1E0B7
:1008A000DE011196CF010B9621912D93E817F907E0
:1008B000D9F78EE28E010F5F1F4FB8014BE00E9407
:1008C000370386E98A8382E88B838BE18C838FED03
:1008D000898384E2B80144E00E9437038981897FDB
:1008E000898384E2B80144E00E9437038FE996E8E7
:1008F000A1E081509040A040E1F700C0000080E0FE
:100900000E9481030E945C032C960FB6F894DEBF10
:100910000FBECDBFCF91DF911F910F91FF90EF9050
:10092000DF90CF9008951F93182F8A3019F48DE02F
:100930000E9493045D9BFECF1CB980E090E01F9164
:1009400008951F93182F9B0140E050E068E679E876
:1009500089E090E00E94C80421503040113069F4D1
:10096000309398002093990010929B0088E1809327
:100970009A0086E080939D0009C03093900029B9C9
:100980001BB888E18AB986E0809395001F9108958D
:10099000A1E21A2EAA1BBB1BFD010DC0AA1FBB1F83
:1009A000EE1FFF1FA217B307E407F50720F0A21BF5
:1009B000B30BE40BF50B661F771F881F991F1A9462
:1009C00069F760957095809590959B01AC01BD018C
:1009D000CF0108950F931F93DF93CF93CDB7DEB769
:1009E0002E970FB6F894DEBF0FBECDBF0D891E89BE
:1009F0008EE08C831A8309838FEF9FE79E838D831C
:100A00009E01275E3F4FCE0101966F89788DA90127
:100A10000E941A05EF81F885E00FF11F10822E96D3
:100A20000FB6F894DEBF0FBECDBFCF91DF911F91FF
:100A30000F9108952F923F924F925F926F927F9203
:100A40008F929F92AF92BF92CF92DF92EF92FF92DE
:100A50000F931F93DF93CF93CDB7DEB72C970FB6CD
:100A6000F894DEBF0FBECDBF6C011B018A01FC01F3
:100A700017821682838181FFD1C12E010894411C07
:100A8000511CF6019381F10193FD859193FF8191B2
:100A90001F01882309F4BEC1853239F493FD859185
:100AA00093FF81911F01853229F490E0B6010E94E5
:100AB0004007E7CFEE24FF2420E02032B0F48B3251
:100AC00069F08C3228F4803251F0833271F40BC01B
:100AD0008D3239F0803349F421602CC022602460CB
:100AE00029C0286027C0206125C027FD2CC0382FD1
:100AF00030533A3098F426FF08C08E2D880FE82E28
:100B0000EE0CEE0CE80EE30E15C08F2D880FF82EBC
:100B1000FF0CFF0CF80EF30E20620CC08E3221F495
:100B200026FD78C1206406C08C3611F4206802C00E
:100B3000883649F4F10193FD859193FF81911F015E
:100B4000882309F0BACF982F9554933018F090521B
:100B5000933028F40C5F1F4FFFE3F9830DC08336F9
:100B600031F0833771F0833509F060C022C0F8019D
:100B7000808189830E5F1F4F420171E0A72EB12C47
:100B800016C062E0662E712C600E711EF801808026
:100B9000918026FF03C06E2D70E002C06FEF7FEFE3
:100BA000C4012C870E9435075C0183012C852F77B7
:100BB00017C052E0652E712C600E711EF801808006
:100BC000918026FF03C06E2D70E002C06FEF7FEFB3
:100BD000C4012C870E942A075C012C8520688301B0
:100BE00023FD20C008C080E290E0B6012C870E945F
:100BF0004007FA942C858F2D90E0A816B90698F33B
:100C000011C0F40127FD859127FF81914F0190E0EC
:100C1000B6012C870E9440072C85F110FA940894A5
:100C2000A108B108A114B10461F7F1C0843611F034
:100C3000893649F527FF08C0F801608171818281FA
:100C400093810C5F1F4F09C0F80160817181882773
:100C500077FD8095982F0E5F1F4F4FE6B42EB2227E
:100C600097FF09C090958095709561957F4F8F4F44
:100C70009F4FF0E8BF2AA2012AE030E00E946C07F3
:100C8000782E741845C0853731F43FEEB32EB2226A
:100C90002AE030E025C099EFB92EB2228F36C1F09C
:100CA000803720F4883509F0B5C00DC0803721F0B9
:100CB000883709F0AFC002C020E1B22AB4FE0BC0F1
:100CC00084E0B82A08C0B4FE09C0E6E0BE2A06C027
:100CD00028E030E005C020E130E002C020E132E051
:100CE000B7FE08C0F80160817181828193810C5F39
:100CF0001F4F07C0F8016081718180E090E00E5FB6
:100D00001F4FA2010E946C07782E7418FFE7BF22C4
:100D1000B6FE0BC02EEFB2227E1438F4B4FE07C02C
:100D2000B2FC05C08FEEB82202C0A72C01C0AE2CC9
:100D30008B2D90E0B4FE0DC0FE01E70DF11D20816A
:100D4000203319F4E9EEBE2209C0A394B2FE06C016
:100D500004C086789070009709F0A3948B2C992496
:100D6000B3FC14C0B0FE0FC0AF1428F4E72CEF0C96
:100D7000EA18AF2C08C0E72C06C080E290E0B6016C
:100D80000E944007A394AF14C0F304C0AF1410F442
:100D9000FA1801C0FF2484FE0FC080E390E0B60182
:100DA0000E94400782FE1FC081FE03C088E590E0DC
:100DB00010C088E790E00DC0C4018678907000975D
:100DC00091F081FC02C080E201C08BE2B7FC8DE2B1
:100DD00090E0B6010E94400706C080E390E0B601B3
:100DE0000E944007EA947E14C0F37A94F201E70D62
:100DF000F11D808190E0B6010E9440077720A9F79D
:100E000006C080E290E0B6010E944007FA94FF20FD
:100E1000C1F737CEF6012681378102C02FEF3FEFB1
:100E2000C9012C960FB6F894DEBF0FBECDBFCF918F
:100E3000DF911F910F91FF90EF90DF90CF90BF90C7
:100E4000AF909F908F907F906F905F904F903F906A
:100E50002F900895FC010590615070400110D8F763
:100E6000809590958E0F9F1F0895FC0161507040F2
:100E700001900110D8F7809590958E0F9F1F0895CF
:100E80000F931F93CF93DF938C01EB018B8181FF35
:100E90001BC082FF0DC02E813F818C819D81281750
:100EA000390764F4E881F9810193F983E88306C086
:100EB000E885F985802F0995009731F48E819F810F
:100EC00001969F838E8302C00FEF1FEFC801DF9151
:100ED000CF911F910F910895FA01AA27283051F15F
:100EE000203181F1E8946F936E7F6E5F7F4F8F4F5B
:100EF0009F4FAF4FB1E03ED0B4E03CD0670F781FBA
:100F0000891F9A1FA11D680F791F8A1F911DA11D9E
:100F10006A0F711D811D911DA11D20D009F46894D7
:100F20003F912AE0269F11243019305D3193DEF67F
:100F3000CF010895462F4770405D4193B3E00FD035
:100F4000C9F7F6CF462F4F70405D4A3318F0495D20
:100F500031FD4052419302D0A9F7EACFB4E0A69503
:100F60009795879577956795BA95C9F70097610525
:100F7000710508959B01AC010A2E0694579547957B
:100F800037952795BA95C9F7620F731F841F951F70
:080F9000A01D0895F894FFCFA5
:100F9800303132333435363738393A3B3C3D3E3FD1
:100FA80078000000020000000093040000000040E8
:100FB8004B01E2C04B0000D0FC8C0299003941D9AA
:100FC80096821B24027FA60000000000000000009B
:100FD8000000000000000000000000000000000009
:100FE8007312000080B446412008048120CFF7FE28
:100FF800FFFF000F013F023F030304FF0517060729
:101008000707080009000CC30DC40EC50FC6112040
:101018001220132014201520162017001C3F1D072E
:0A102800344310100139383736C286
:00000001FF
