:100000000C94C5000C94E4000C94E4000C94E400FF
:100010000C94E4000C94E4000C94E4000C94E400D0
:100020000C94E4000C94E4000C94E4000C94E400C0
:100030000C94E4000C94E4000C94C8010C94E400CB
:100040000C94E4000C94E4000C94E4000C94E400A0
:100050000C94E4000C94E4000C94E4000C94E40090
:100060000C94E4000C94E4000C94E4000C94E40080
:100070000C94E4000C94E4000C94E4000C94E40070
:100080000C94E4000C94E4000C94E4005265636565
:1000900069766564207061636B65743A202573200E
:1000A0007769746820636F7272656374204352438A
:1000B0000A546F74616C20636F7272656374207090
:1000C00061636B6574733A2025640A0052433D25D1
:1000D00034643B00526563656976656420706163D2
:1000E0006B65743A2025730A546F74616C207061DB
:1000F000636B6574733A2025640A0052203D2534F1
:10010000643B00443D203200443D2E3300443D20FA
:100110003100473D2020303B00473D2D32303B0031
:10012000503D2B353B2000503D20303B2000503DC2
:100130002D353B2000503D2D31303B0053656E7412
:10014000207061636B65742025730A53656E74209B
:1001500025642074696D65730A00533D25643B0076
:100160001B5B324A48656C6C6F2066726F6D205263
:10017000464D37332E2E2E0A0048656C6C6F206674
:10018000726F6D2052582E2E2E0011241FBECFEFFD
:10019000D0E1DEBFCDBF11E0A0E0B1E0ECEFF3E1D4
:1001A00000E00BBF02C007900D92AA39B107D9F742
:1001B00011E0AAE9B1E001C01D92AA3CB107E1F744
:1001C0000E948A030C94FC090C9400008F70A99A79
:1001D00096EA9A95F1F700C095B39F7095BB95B3D9
:1001E0008295807F892B85BBA99886EA8A95F1F74D
:1001F00000C008951F93182F82958F70662311F405
:10020000A89801C0A89A0E94E600812F0E94E600EB
:100210001F91089515BA83EF84BB8BE792E901978C
:10022000F1F700C0000083E360E00E94FA008FE075
:1002300097E20197F1F700C0000082E360E00E94BE
:10024000FA0089EF90E00197F1F700C0000088E222
:1002500060E00E94FA0083EC99E00197F1F700C09A
:1002600000008CE060E00E94FA0083EC99E00197C6
:10027000F1F700C0000086E060E00E94FA0083EC25
:1002800099E00197F1F700C00000089581E060E077
:100290000E94FA0085EA9EE00197F1F700C0000095
:1002A00008956295660F660F607C860F806860E037
:1002B0000E94FA000895CF93DF93EC018881882390
:1002C00039F0219661E00E94FA0089918823D1F7E4
:1002D000DF91CF910895B89ABC9ABD98C4988AB31B
:1002E00087608ABB08958DEA93EE9DBD8CBD8EB567
:1002F00085608EBD87B7846087BF08950F931F9375
:10030000DF93CF93CDB7DEB760970FB6F894DEBF1B
:100310000FBECDBF0E946B010E9499060E9473011F
:100320000E940A0180E060E076E90E94B30681E164
:1003300091E09093C7018093C6010E94460100D0CE
:1003400000D08E010F5F1F4FEDB7FEB71283018300
:1003500089E791E0948383830E941C070F900F909C
:1003600080E691E0EDB7FEB7928381830E94FC06A0
:100370000F900F90C8010E945B0160960FB6F89431
:10038000DEBF0FBECDBFCF91DF911F910F910895BA
:100390001F920F920FB60F9211248F939F9380910B
:1003A000C30181608093C3019BB384E089278BBB29
:1003B0008DEA93EE9DBD8CBD9F918F910F900FBEE6
:1003C0000F901F9018958FE794E8AEE18150904010
:1003D000A040E1F700C000000895EF92FF920F9354
:1003E0001F93DF93CF93CDB7DEB7E0970FB6F894A6
:1003F000DEBF0FBECDBF8091C30180FF6BC08E7F7B
:100400008093C301E0E0F1E0DE011196CF01419657
:1004100021912D93E817F907D9F780E07E01089420
:10042000E11CF11CB70141E10E94210680919B0172
:1004300090919C019C012F5F3F4F30939C01209332
:100440009B0100D000D000D0EDB7FEB731968E01F1
:100450000F5D1F4FADB7BEB712961C930E93119749
:100460002AE531E033832283958384830E941C072D
:100470008DB79EB706960FB6F8949EBF0FBE8DBF80
:1004800080E061E00E945101C8010E945B0118A256
:1004900000D000D000D0EDB7FEB731968CE391E0EC
:1004A000ADB7BEB712969C938E931197F382E282FA
:1004B00080919B0190919C01958384830E94FC060E
:1004C0008DB79EB706960FB6F8949EBF0FBE8DBF30
:1004D0000E94E304E0960FB6F894DEBF0FBECDBFD6
:1004E000CF91DF911F910F91FF90EF900895FF92B0
:1004F0000F931F93DF93CF93CDB7DEB7A8970FB6B7
:10050000F894DEBF0FBECDBF182FF62E042F882320
:10051000B9F400D000D0CE014496ADB7BEB7129664
:100520009C938E93119785E391E014969C938E9300
:1005300013970E941C070F900F900F900F902EC0E2
:10054000813099F400D000D0CE014496EDB7FEB7CB
:10055000928381838EE291E0948383830E941C07BF
:100560000F900F900F900F902DC08230B9F400D0F3
:1005700000D0CE014496ADB7BEB712969C938E9331
:10058000119787E291E014969C938E9313970E94A3
:100590001C070F900F900F900F9014C0133091F420
:1005A00000D000D0CE014496EDB7FEB79283818390
:1005B00080E291E0948383830E941C070F900F9048
:1005C0000F900F90FF20B9F400D000D0CE014B96D1
:1005D000ADB7BEB712969C938E93119789E191E0C7
:1005E00014969C938E9313970E941C070F900F9064
:1005F0000F900F9015C0BF2DB13091F400D000D0F6
:10060000CE014B96EDB7FEB79283818382E191E0F4
:10061000948383830E941C070F900F900F900F907C
:100620000023B9F400D000D0CE018296ADB7BEB79A
:1006300012969C938E9311978DE091E014969C9363
:100640008E9313970E941C070F900F900F900F909E
:100650002DC0013099F400D000D0CE018296EDB7C4
:10066000FEB79283818388E091E0948383830E9424
:100670001C070F900F900F900F9018C00230B1F42C
:1006800000D000D0CE018296ADB7BEB712969C9333
:100690008E93119783E091E014969C938E93139719
:1006A0000E941C070F900F900F900F909E012C5EE0
:1006B0003F4FFE013196CE014B96BE016E5D7F4FDE
:1006C00040E0D9015D919D015083DC015D91CD0138
:1006D0005683DB015D91BD0154874F5F31964630F3
:1006E00081F780E060E00E945101CE0101960E94F6
:1006F0005B01812F6F2D402F0E941F05A8960FB61A
:10070000F894DEBF0FBECDBFCF91DF911F910F9147
:10071000FF9008952F923F924F925F926F927F9237
:100720008F929F92AF92BF92CF92DF92FF920F93E0
:100730001F93DF93CF93CDB7DEB7E0970FB6F89452
:10074000DEBF0FBECDBF0E94E3010E947E01789400
:100750001092A2018091C3018E7F8093C30183E038
:1007600061E042E00E947702FF246894F1F801E022
:1007700013E088249924662477246E010894C11C10
:10078000D11C0F2EF1E2AF2EBB24F02DAC0EBD1EFE
:100790000F2EFBEF2F2EF0E03F2EF02D81E0B60163
:1007A0000E944A06823009F044C023010894411C8B
:1007B000511C00D000D000D0EDB7FEB73196ADB7D8
:1007C000BEB71296BC92AE92119733822282758286
:1007D00064820E941C078DB79EB706960FB6F894E8
:1007E0009EBF0FBE8DBF80E061E00E945101C50138
:1007F0000E945B0118A200D000D000D0EDB7FEB778
:10080000319684ED90E0ADB7BEB712969C938E936F
:100810001197D382C282558244820E94FC06ADB7F2
:10082000BEB716960FB6F894BEBF0FBEADBF32016D
:1008300047C0813009F044C024010894411C511C78
:1008400000D000D000D0EDB7FEB73196ADB7BEB73F
:100850001296BC92AE9211978CEC90E093838283B7
:10086000958284820E941C07ADB7BEB716960FB65C
:10087000F894BEBF0FBEADBF80E061E00E945101A1
:10088000C5010E945B0100D000D000D0EDB7FEB7DB
:1008900031968CE890E0ADB7BEB712969C938E93DC
:1008A0001197D382C282558244820E94FC06ADB762
:1008B000BEB716960FB6F894BEBF0FBEADBF4201CD
:1008C00089B3807E803851F41F5F143009F410E042
:1008D000812F602F4F2D0E94770260CF803451F41A
:1008E0000F5F023009F400E0812F602F4F2D0E942E
:1008F000770254CF803209F051CFF394BF2DB3303B
:1009000009F4FF24812F602F4F2D0E94770246CFDC
:100910001F93162FC0980E94A006812F0E94A00648
:10092000C09A1F910895C0980E94A00680E00E947E
:10093000A006C09A0895EF92FF920F931F93CF9352
:10094000DF93F62EE72E142FC0980E94A0061123E5
:1009500079F00F2D8E2DEF2CE7017E01F82EE701A7
:1009600080E00E94A00689937E01E01AE116C0F3A0
:10097000C09ADF91CF911F910F91FF90EF90089552
:10098000EF92FF920F931F93CF93DF93062FF72ED3
:10099000142FC0980E94A006112369F08F2DE02E1D
:1009A000E7017E01F82EE70189910E94A0067E01F1
:1009B000E01AE116C8F3C09ADF91CF911F910F9111
:1009C000FF90EF90089582EE60E00E94880487E037
:1009D0000E949304682F87E20E948804C49880E0F4
:1009E0000E949304682F616080E20E948804C49A88
:1009F000089581EE60E00E948804C49880E00E941F
:100A00009304682F6E7F80E20E948804C49A089540
:100A10001F93182F87E00E94930488231CF411234E
:100A200019F006C0112321F080E563E50E948804D7
:100A30001F910895682F85E20E9488040895CF923F
:100A4000DF92EF92FF920F931F93DF93CF93CDB777
:100A5000DEB72C970FB6F894DEBF0FBECDBFE82EE1
:100A6000062FC42E8FE79AE1A6E081509040A04067
:100A7000E1F700C0000080E00E9408054C2D50E026
:100A80002FE631E0FF2493E0E922FF24B701660F4F
:100A9000771FCA0182709070880F991F880F991F65
:100AA000880F991F862B0170802B41705070440F66
:100AB000551F42955295507F5427407F5427482B0D
:100AC00040936F0189010D5010400F2EFBE1EF2E76
:100AD000FF24F02DE20EF31ED8018C918062119656
:100AE0006C910E9488040E5F1F4F0E151F05A1F721
:100AF00000E911E08AE2B80145E00E94C0048BE2FF
:100B000065E971E045E00E94C00480E3B80145E07A
:100B10000E94C0048DE10E949304882321F480E5A3
:100B200063E70E94880480918E01806260918F014A
:100B30000E94880480918C01806260918D010E94E6
:100B4000880481E00E9408050FE111E0EE246E01A7
:100B50000894C11CD11C07C003E411E06E01089485
:100B6000C11CD11C15C0F80181919191A191B19145
:100B70008F0189839A83AB83BC838E2D8062B601FB
:100B800044E00E94C004E394FE2DF93061F7E4CF05
:100B9000F80181919191A191B1918F01B983AA83BB
:100BA0009B838C838E2D8062B60144E00E94C0043A
:100BB000E394FE2DFE3061F7E7E5F1E0DE011196EA
:100BC000CF010B9621912D93E817F907D9F78EE203
:100BD0008E010F5F1F4FB8014BE00E94C00486E9F1
:100BE0008A8382E88B838BE18C838FED898384E217
:100BF000B80144E00E94C0048981897F898384E22E
:100C0000B80144E00E94C0048FE996E8A1E0815059
:100C10009040A040E1F700C0000080E00E9408057D
:100C20000E94E3042C960FB6F894DEBF0FBECDBF32
:100C3000CF91DF911F910F91FF90EF90DF90CF90B8
:100C400008950F931F93CF93DF93182FEB01042F79
:100C50000E94F90483EF91E00197F1F700C00000D2
:100C600087E10E94930485FD0FC0D99A113031F4B9
:100C700080EABE01402F0E94C00405C080EBBE0187
:100C8000402F0E94C004D99880E0DF91CF911F913E
:100C90000F910895EF92FF920F931F93CF93DF93DD
:100CA000E82EEB0187E00E949304082F86FF34C0F2
:100CB00010E0FF24F39480E60E949304482F8132D1
:100CC00030F481E6BE010E949B041F2D04C082EE19
:100CD00060E00E94880487E10E94930480FFEBCFCC
:100CE000FE0190E080E02191920F8F5F8031D9F773
:100CF0008889981791F48881803379F4D89A8E2D59
:100D0000813029F480EBBE0141E10E942106D89890
:100D10000E94E30410E001C010E087E2602F0E940F
:100D20008804812FDF91CF911F910F91FF90EF9059
:100D3000089587B3866087BB81E58DB96D98089566
:100D40008FB9779BFECF8FB108951F93182F8A30EC
:100D500019F48DE00E94A5065D9BFECF1CB980E0D2
:100D600090E01F9108951F93182F9B0140E050E0E1
:100D700068E679E889E090E00E94DA062150304088
:100D8000113069F4309398002093990010929B00E1
:100D900088E180939A0086E080939D0009C030939B
:100DA000900029B91BB888E18AB986E08093950044
:100DB0001F910895A1E21A2EAA1BBB1BFD010DC0B5
:100DC000AA1FBB1FEE1FFF1FA217B307E407F507FB
:100DD00020F0A21BB30BE40BF50B661F771F881FD7
:100DE000991F1A9469F760957095809590959B016D
:100DF000AC01BD01CF010895DF93CF93CDB7DEB72E
:100E0000FE013596619171918091C6019091C70163
:100E1000DC0113962C911397286013962C93AF0145
:100E20000E944C07E091C601F091C7012381277F02
:100E30002383CF91DF9108950F931F93DF93CF9377
:100E4000CDB7DEB72E970FB6F894DEBF0FBECDBF7D
:100E50000D891E898EE08C831A8309838FEF9FE7AB
:100E60009E838D839E01275E3F4FCE0101966F8941
:100E7000788DA9010E944C07EF81F885E00FF11FE2
:100E800010822E960FB6F894DEBF0FBECDBFCF9165
:100E9000DF911F910F9108952F923F924F925F9291
:100EA0006F927F928F929F92AF92BF92CF92DF927A
:100EB000EF92FF920F931F93DF93CF93CDB7DEB7DF
:100EC0002C970FB6F894DEBF0FBECDBF6C011B018F
:100ED0008A01FC0117821682838181FFD1C12E0114
:100EE0000894411C511CF6019381F10193FD8591F9
:100EF00093FF81911F01882309F4BEC1853239F423
:100F000093FD859193FF81911F01853229F490E033
:100F1000B6010E947209E7CFEE24FF2420E02032C0
:100F2000B0F48B3269F08C3228F4803251F0833285
:100F300071F40BC08D3239F0803349F421602CC03C
:100F40002260246029C0286027C0206125C027FDB9
:100F50002CC0382F30533A3098F426FF08C08E2D1D
:100F6000880FE82EEE0CEE0CE80EE30E15C08F2D68
:100F7000880FF82EFF0CFF0CF80EF30E20620CC049
:100F80008E3221F426FD78C1206406C08C3611F41F
:100F9000206802C0883649F4F10193FD859193FFE2
:100FA00081911F01882309F0BACF982F955493306F
:100FB00018F09052933028F40C5F1F4FFFE3F98331
:100FC0000DC0833631F0833771F0833509F060C08E
:100FD00022C0F801808189830E5F1F4F420171E0BA
:100FE000A72EB12C16C062E0662E712C600E711E09
:100FF000F8018080918026FF03C06E2D70E002C052
:101000006FEF7FEFC4012C870E9467095C018301A9
:101010002C852F7717C052E0652E712C600E711E43
:10102000F8018080918026FF03C06E2D70E002C021
:101030006FEF7FEFC4012C870E945C095C012C8557
:101040002068830123FD20C008C080E290E0B60143
:101050002C870E947209FA942C858F2D90E0A81697
:10106000B90698F311C0F40127FD859127FF8191FE
:101070004F0190E0B6012C870E9472092C85F11077
:10108000FA940894A108B108A114B10461F7F1C061
:10109000843611F0893649F527FF08C0F8016081D0
:1010A0007181828193810C5F1F4F09C0F8016081BB
:1010B0007181882777FD8095982F0E5F1F4F4FE62F
:1010C000B42EB22297FF09C09095809570956195D6
:1010D0007F4F8F4F9F4FF0E8BF2AA2012AE030E0F8
:1010E0000E949E09782E741845C0853731F43FEE72
:1010F000B32EB2222AE030E025C099EFB92EB222F9
:101100008F36C1F0803720F4883509F0B5C00DC0A6
:10111000803721F0883709F0AFC002C020E1B22A41
:10112000B4FE0BC084E0B82A08C0B4FE09C0E6E0F3
:10113000BE2A06C028E030E005C020E130E002C051
:1011400020E132E0B7FE08C0F80160817181828140
:1011500093810C5F1F4F07C0F8016081718180E0AF
:1011600090E00E5F1F4FA2010E949E09782E741816
:10117000FFE7BF22B6FE0BC02EEFB2227E1438F47A
:10118000B4FE07C0B2FC05C08FEEB82202C0A72C87
:1011900001C0AE2C8B2D90E0B4FE0DC0FE01E70D1A
:1011A000F11D2081203319F4E9EEBE2209C0A39479
:1011B000B2FE06C004C086789070009709F0A39430
:1011C0008B2C9924B3FC14C0B0FE0FC0AF1428F4CC
:1011D000E72CEF0CEA18AF2C08C0E72C06C080E221
:1011E00090E0B6010E947209A394AF14C0F304C04A
:1011F000AF1410F4FA1801C0FF2484FE0FC080E37E
:1012000090E0B6010E94720982FE1FC081FE03C0F9
:1012100088E590E010C088E790E00DC0C4018678B2
:101220009070009791F081FC02C080E201C08BE2D7
:10123000B7FC8DE290E0B6010E94720906C080E31F
:1012400090E0B6010E947209EA947E14C0F37A9489
:10125000F201E70DF11D808190E0B6010E94720954
:101260007720A9F706C080E290E0B6010E947209DB
:10127000FA94FF20C1F737CEF6012681378102C0EC
:101280002FEF3FEFC9012C960FB6F894DEBF0FBECB
:10129000CDBFCF91DF911F910F91FF90EF90DF9025
:1012A000CF90BF90AF909F908F907F906F905F9006
:1012B0004F903F902F900895FC0105906150704031
:1012C0000110D8F7809590958E0F9F1F0895FC010F
:1012D0006150704001900110D8F7809590958E0F65
:1012E0009F1F08950F931F93CF93DF938C01EB0102
:1012F0008B8181FF1BC082FF0DC02E813F818C81BD
:101300009D812817390764F4E881F9810193F983F5
:10131000E88306C0E885F985802F0995009731F4A8
:101320008E819F8101969F838E8302C00FEF1FEFF6
:10133000C801DF91CF911F910F910895FA01AA275B
:10134000283051F1203181F1E8946F936E7F6E5F08
:101350007F4F8F4F9F4FAF4FB1E03ED0B4E03CD0B6
:10136000670F781F891F9A1FA11D680F791F8A1F99
:10137000911DA11D6A0F711D811D911DA11D20D000
:1013800009F468943F912AE0269F11243019305DBA
:101390003193DEF6CF010895462F4770405D4193AB
:1013A000B3E00FD0C9F7F6CF462F4F70405D4A33F8
:1013B00018F0495D31FD4052419302D0A9F7EACFC0
:1013C000B4E0A6959795879577956795BA95C9F7EF
:1013D00000976105710508959B01AC010A2E0694E2
:1013E0005795479537952795BA95C9F7620F731F9B
:0C13F000841F951FA01D0895F894FFCFE6
:1013FC00303132333435363738393A3B3C3D3E3F69
:10140C00780000000200000000A50600000000406B
:10141C004B01E2C04B0000D0FC8C0299003941D941
:10142C0096821B24027FA600000000000000000032
:10143C0000000000000000000000000000000000A0
:10144C007312000080B446412008048120CFF7FEBF
:10145C00FFFF000F013F0201030304FF05170607FE
:10146C000707080009000CC30DC40EC50FC61120D8
:10147C001220132014201520162017001C3F1D07C6
:0A148C00344310100139383736C21E
:00000001FF
